S02A00006176722D6465762D626F6172642D6578742D636F756E7465722D6578616D706C65322E737265631A
S11300000C9434000C9451000C94D7000C945100BF
S11300100C9451000C9451000C9451000C94510018
S11300200C9451000C9451000C9451000C94510008
S11300300C9451000C9441030C9451000C94510005
S11300400C9481010C9451000C947B040C94510089
S11300500C9451000C9453000C9451000C945100D6
S11300600C9451000C94510011241FBECFEFD8E022
S1130070DEBFCDBF11E0A0E0B1E0E4E0F3E102C0F7
S113008005900D92A832B107D9F722E0A8E2B1E0B9
S113009001C01D92A338B207E1F70E9470000C94CE
S11300A080090C9400001F920F920FB60F92112436
S11300B02F938F939F9381E080932A0180917800FE
S11300C02091790090E0922B90932901809328014C
S11300D09F918F912F910F900FBE0F901F901895A5
S11300E0CF93DF93CDB7DEB72A970FB6F894DEBF70
S11300F00FBECDBF83E30E943C0468EE73E082E050
S11301000E941B030E94BA00FE0131968AE0DF01BF
S11301101D928A95E9F780E091E00E9463040F2E16
S1130120F3E2EF2EF1E0FF2EF02D8E010F5F1F4F53
S113013088E191E00E9463040E94CE009F938F9314
S11301407F936F93FF92EF921F930F930E94AF06DA
S1130150C8010E94630485E191E00E94630419824E
S113016088EE93E00E942A030FB6F894DEBF0FBE18
S1130170CDBFDECF40E062E08AE290E00E943F0122
S113018040E063E08AE290E00E943F01E9E6F0E0AB
S1130190808188608083E99A7894089560912B0126
S11301A070912C0180912D0190912E0108951F9240
S11301B00F920FB60F9211242F938F939F93AF93A7
S11301C0BF934A9B2AC080912B0190912C01A0914E
S11301D02D01B0912E010197A109B10980932B0142
S11301E090932C01A0932D01B0932E0180912B01AB
S11301F090912C01A0912D01B0912E01BB23ACF55F
S11302008FEF97E0A0E0B0E080932B0190932C0156
S1130210A0932D01B0932E0128C080912B019091C1
S11302202C01A0912D01B0912E010196A11DB11DAB
S113023080932B0190932C01A0932D01B0932E0158
S113024080912B0190912C01A0912D01B0912E0150
S113025081159840A105B10544F010922B0110922C
S11302602C0110922D0110922E01BF91AF919F91FC
S11302708F912F910F900FBE0F901F9018954423CC
S113028089F04130F1F4FC01408121E030E0F901D2
S113029002C0EE0FFF1F6A95E2F7BF01642BFC0159
S11302A060830895FC01408121E030E0F90102C03F
S11302B0EE0FFF1F6A95E2F7BF0160956423FC010E
S11302C060830895FC01408121E030E0F90102C01F
S11302D0EE0FFF1F6A95E2F7BF01642BFC016083F8
S11302E00895FC01408121E030E0F90102C0EE0FE5
S11302F0FF1F6A95E2F7BF0160956423FC016083E8
S113030008951F920F920FB60F9211244F925F928D
S11303106F927F928F929F92AF92BF92CF92DF9211
S1130320EF92FF922F933F934F935F936F937F933B
S11303308F939F93AF93BF93EF93FF93CF93DF93E9
S1130340CDB7DEB72C97DEBFCDBF80912F018130B2
S113035009F04CC1E5E4F1E080819181019691833B
S113036080832081318180913F0190914001281741
S1130370390708F4FFC010924601109245010E940B
S1130380CE006B017C0120913D0130913E018091B2
S11303905D0190915E01A0915F01B0916001820FB7
S11303A0931F8C199D09A0E0B0E02DE431E0F90120
S11303B080839183A283B383E9E5F1E04081518195
S11303C062817381D9018D909D90AD90BC90D501CF
S11303D0C401840F951FA61FB71F80839183A28336
S11303E0B38380819181A281B381893C9105A10568
S11303F0B10564F088EC90E0A0E0B0E0809359018E
S113040090935A01A0935B01B0935C012DE431E019
S1130410F90180819181A281B38140915101509170
S113042052016091530170915401841B950BA60BEA
S1130430B70BE5E5F1E080839183A283B3838090D9
S1130440310190903201A0903301B0903401D90170
S11304506D917D918D919C91209135013091360162
S1130460409137015091380129833A834B835C834F
S11304704090590150905A0160905B0170905C016A
S11304802091390130913A0140913B0150913C0156
S11304902D833E834F83588720813181428153814C
S11304A029873A874B875C870E94C0059B01AC0172
S11304B0C501B4010E944C064B015C01C301B201A9
S11304C00E94C0059B01AC0169817A818B819C816A
S11304D00E944C069B01AC01C501B4010E94C104F9
S11304E04B015C0169857A858B859C850E94C005DA
S11304F09B01AC016D817E818F8198850E944C06A1
S11305009B01AC01C501B4010E94C10420E030E0AC
S113051040E251E40E9425050E948D052091490185
S113052030914A012617370748F480914901909188
S11305304A01909348018093470104C07093480195
S113054060934701C0925D01D0925E01E0925F0129
S1130550F092600180914D0190914E01A0914F0164
S1130560B09150018093510190935201A093530193
S1130570B0935401EBE4F1E0808191810196918381
S11305808083208131818091490190914A0128170B
S11305903907B0F08091470190914801892B81F08F
S11305A010924C0110924B0180913001811102C0D4
S11305B0299A1CC0809130018130C1F42A9A16C056
S11305C020914B0130914C01809147019091480159
S11305D02817390758F080913001811102C02998F9
S11305E005C080913001813009F42A982C960FB609
S11305F0F894DEBF0FBECDBFDF91CF91FF91EF9195
S1130600BF91AF919F918F917F916F915F914F9126
S11306103F912F91FF90EF90DF90CF90BF90AF90DC
S11306209F908F907F906F905F904F900F900FBE30
S11306300F901F90189593E09093800088618093A9
S1130640810081E080936F0070938900609388003B
S113065078940895A0E0B0E08093620190936301E0
S1130660A0936401B093650180916201909163014C
S1130670A0916401B0916501892B8A2B8B2BA1F782
S113068008951F920F920FB60F9211242F933F9348
S11306904F935F936F937F938F939F93AF93BF9386
S11306A0EF93FF9380916101813009F058C0EDE729
S11306B0F1E080819181A281B3810196A11DB11DD8
S11306C080839183A283B38340815181628173814A
S11306D08091750190917601A0917701B091780194
S11306E0481759076A077B07E8F0809179019091D0
S11306F07A01A0917B01B0917C01892B8A2B8B2BF1
S113070089F06091740180917201909173010E944B
S1130710620110927D0110927E0110927F0110926D
S113072080011DC040917D0150917E0160917F0147
S1130730709180018091790190917A01A0917B015F
S1130740B0917C01481759076A077B0740F0609114
S1130750740180917201909173010E9471018091E2
S11307606E0190916F01A0917001B0917101892B7C
S11307708A2B8B2B99F080916E0190916F01A0913F
S11307807001B09171010197A109B10980936E01C3
S113079090936F01A0937001B093710180916A01ED
S11307A090916B01A0916C01B0916D01892B8A2B02
S11307B08B2B99F080916A0190916B01A0916C014F
S11307C0B0916D010197A109B10980936A019093D9
S11307D06B01A0936C01B0936D01809166019091BF
S11307E06701A0916801B0916901892B8A2B8B2B39
S11307F099F08091660190916701A0916801B09190
S113080069010197A109B109809366019093670179
S1130810A0936801B0936901809162019091630192
S1130820A0916401B0916501892B8A2B8B2B99F0DF
S11308308091620190916301A0916401B09165017E
S11308400197A109B1098093620190936301A09378
S11308506401B0936501FF91EF91BF91AF919F91B6
S11308608F917F916F915F914F913F912F910F9055
S11308700FBE0F901F901895109283011092820161
S113088010928101E0918101F0E0EC57FE4F10825B
S1130890E1ECF0E0908198699083E2ECF0E09081E3
S11308A09260908390E09093C5008093C400789404
S11308B00895109283018093C600E0ECF0E08081FB
S11308C085FFFDCF0895CF93DF93EC0188818823C2
S11308D031F021960E94590489918111FBCFDF9157
S11308E0CF91089510928101E0918101F0E0EC57DD
S11308F0FE4F108208951F920F920FB60F9211248B
S11309002F933F934F935F936F937F938F939F9313
S1130910AF93BF93EF93FF938091C60090918101B1
S11309209D3FD8F4E0918101F0E0EC57FE4F8083C5
S1130930E0918101F0E0EB57FE4F1082909181012C
S11309409F5F90938101882321F08A3011F08D30CC
S113095031F481E08093820102C00E947204FF910D
S1130960EF91BF91AF919F918F917F916F915F9123
S11309704F913F912F910F900FBE0F901F9018959C
S11309805058BB27AA270ED04DC13ED130F043D1D9
S113099020F031F49F3F11F41EF433C10EF4E095BE
S11309A0E7FB29C1E92F4FD180F3BA176207730718
S11309B08407950718F071F49EF567C10EF4E0956D
S11309C00B2EBA2FA02D0B01B90190010C01CA0105
S11309D0A0011124FF27591B99F0593F50F4503EB0
S11309E068F11A16F040A22F232F342F4427585FA2
S11309F0F3CF469537952795A795F0405395C9F7BA
S1130A007EF41F16BA0B620B730B840BBAF0915071
S1130A10A1F0FF0FBB1F661F771F881FC2F70EC010
S1130A20BA0F621F731F841F48F4879577956795E3
S1130A30B795F7959E3F08F0B3CF9395880F08F0CC
S1130A409927EE0F9795879508950CD0EBC0E3D0C6
S1130A5040F0DAD030F021F45F3F19F0CCC05111EE
S1130A6015C1CFC0F0D098F39923C9F35523B1F33E
S1130A70951B550BBB27AA2762177307840738F009
S1130A809F5F5F4F220F331F441FAA1FA9F333D068
S1130A900E2E3AF0E0E830D091505040E695001C1C
S1130AA0CAF729D0FE2F27D0660F771F881FBB1FD8
S1130AB0261737074807AB07B0E809F0BB0B802DB2
S1130AC0BF01FF2793585F4F2AF09E3F510568F0FE
S1130AD092C0DCC05F3FECF3983EDCF386957795DB
S1130AE06795B795F7959F5FC9F7880F911D969500
S1130AF0879597F90895E1E0660F771F881FBB1F5C
S1130B00621773078407BA0720F0621B730B840B08
S1130B10BA0BEE1F88F7E095089504D06894B111DC
S1130B20B5C0089598D088F09F5790F0B92F9927B1
S1130B30B751A0F0D1F0660F771F881F991F1AF0E4
S1130B40BA95C9F712C0B13081F09FD0B1E00895D1
S1130B509CC0672F782F8827B85F39F0B93FCCF352
S1130B60869577956795B395D9F73EF490958095DA
S1130B70709561957F4F8F4F9F4F0895E89409C0FA
S1130B8097FB3EF490958095709561957F4F8F4FBC
S1130B909F4F9923A9F0F92F96E9BB279395F695D2
S1130BA0879577956795B795F111F8CFFAF4BB0F50
S1130BB011F460FF1BC06F5F7F4F8F4F9F4F16C0B4
S1130BC0882311F096E911C0772321F09EE8872F3E
S1130BD0762F05C0662371F096E8862F70E060E0FA
S1130BE02AF09A95660F771F881FDAF7880F969573
S1130BF0879597F9089597F99F6780E870E060E01A
S1130C0008959FEF80EC089500240A9416161706A1
S1130C1018060906089500240A94121613061406E9
S1130C2005060895092E0394000C11F4882352F04C
S1130C30BB0F40F4BF2B11F460FF04C06F5F7F4F04
S1130C408F4F9F4F089557FD9058440F551F59F0EB
S1130C505F3F71F04795880F97FB991F61F09F3FA5
S1130C6079F087950895121613061406551FF2CFCE
S1130C704695F1DF08C0161617061806991FF1CF1E
S1130C8086957105610508940895E894BB27662745
S1130C907727CB0197F908950BD0C4CFB5DF28F09F
S1130CA0BADF18F0952309F0A6CFABCF1124EECF0D
S1130CB0CADFA0F3959FD1F3950F50E0551F629FB3
S1130CC0F001729FBB27F00DB11D639FAA27F00DA1
S1130CD0B11DAA1F649F6627B00DA11D661F829FC8
S1130CE02227B00DA11D621F739FB00DA11D621FAD
S1130CF0839FA00D611D221F749F3327A00D611DCA
S1130D00231F849F600D211D822F762F6A2F1124AB
S1130D109F5750408AF0E1F088234AF0EE0FFF1FFE
S1130D20BB1F661F771F881F91505040A9F79E3F35
S1130D30510570F060CFAACF5F3FECF3983EDCF32F
S1130D40869577956795B795F795E7959F5FC1F772
S1130D50FE2B880F911D9695879597F90895AEE01F
S1130D60B0E0E5EBF6E00C9457090D891E8986E0A6
S1130D708C831A8309838FEF9FE79E838D83AE0153
S1130D80475E5F4F6F89788DCE0101960E94D10630
S1130D90EF81F885E00FF11F10822E96E4E00C94A9
S1130DA07309ACE0B0E0E7EDF6E00C9449097C018E
S1130DB06B018A01FC0117821682838181FFBDC108
S1130DC0CE0101964C01F7019381F60193FD8591C3
S1130DD093FF81916F01882309F4ABC1853239F403
S1130DE093FD859193FF81916F01853229F4B701B9
S1130DF090E00E94B908E7CF512C312C20E020323A
S1130E00A0F48B3269F030F4803259F0833269F403
S1130E1020612CC08D3239F0803339F4216026C032
S1130E202260246023C0286021C027FD27C030ED44
S1130E30380F3A3078F426FF06C0FAE05F9E300D92
S1130E401124532E13C08AE0389E300D1124332E02
S1130E5020620CC08E3221F426FD6BC1206406C0D2
S1130E608C3611F4206802C0883641F4F60193FDF3
S1130E70859193FF81916F018111C1CF982F9F7D3F
S1130E809554933028F40C5F1F4FFFE3F9830DC092
S1130E90833631F0833771F0833509F05BC022C0AB
S1130EA0F801808189830E5F1F4F44244394512CA1
S1130EB0540115C03801F2E06F0E711CF801A080D6
S1130EC0B18026FF03C0652D70E002C06FEF7FEF95
S1130ED0C5012C870E94AE082C0183012C852F7735
S1130EE0222E17C03801F2E06F0E711CF801A080A9
S1130EF0B18026FF03C0652D70E002C06FEF7FEF65
S1130F00C5012C870E94A3082C012C852068222E61
S1130F10830123FC1BC0832D90E048165906B0F4CE
S1130F20B70180E290E00E94B9083A94F4CFF50149
S1130F3027FC859127FE81915F01B70190E00E9413
S1130F40B90831103A94F1E04F1A51084114510490
S1130F5071F7E5C0843611F0893639F5F80127FFB9
S1130F6007C060817181828193810C5F1F4F08C02B
S1130F7060817181882777FD8095982F0E5F1F4FC0
S1130F802F76B22E97FF09C0909580957095619544
S1130F907F4F8F4F9F4F2068B22E2AE030E0A4018C
S1130FA00E94EB08A82EA81844C0853729F42F7E88
S1130FB0B22E2AE030E025C0F22FF97FBF2E8F3603
S1130FC0C1F018F4883579F0B4C0803719F0883747
S1130FD021F0AFC02F2F2061B22EB4FE0DC08B2D97
S1130FE08460B82E09C024FF0AC09F2F9660B92ED2
S1130FF006C028E030E005C020E130E002C020E176
S113100032E0F801B7FE07C060817181828193816B
S11310100C5F1F4F06C06081718180E090E00E5F1D
S11310201F4FA4010E94EB08A82EA818FB2DFF77E0
S1131030BF2EB6FE0BC02B2D2E7FA51450F4B4FE8C
S11310400AC0B2FC08C02B2D2E7E05C07A2C2B2D95
S113105003C07A2C01C0752C24FF0DC0FE01EA0DDB
S1131060F11D8081803311F4297E09C022FF06C05E
S11310707394739404C0822F867809F0739423FDCB
S113108013C020FF06C05A2C731418F4530C5718BD
S1131090732C731468F4B70180E290E02C870E94EB
S11310A0B90873942C85F5CF731410F4371801C064
S11310B0312C24FF12C0B70180E390E02C870E94FA
S11310C0B9082C8522FF17C021FF03C088E590E0F2
S11310D002C088E790E0B7010CC0822F867859F0EF
S11310E021FD02C080E201C08BE227FD8DE2B70141
S11310F090E00E94B908A51438F4B70180E390E0A9
S11311000E94B9085A94F7CFAA94F401EA0DF11D8C
S11311108081B70190E00E94B908A110F5CF332077
S113112009F451CEB70180E290E00E94B9083A94E4
S1131130F6CFF7018681978102C08FEF9FEF2C963F
S1131140E2E10C946509FC010590615070400110C6
S1131150D8F7809590958E0F9F1F0895FC016150DC
S1131160704001900110D8F7809590958E0F9F1FC5
S113117008950F931F93CF93DF93182F092FEB013B
S11311808B8181FD03C08FEF9FEF20C082FF10C0D1
S11311904E815F812C813D81421753077CF4E881A5
S11311A0F9819F012F5F3F4F39832883108306C045
S11311B0E885F985812F0995892B29F72E813F81AF
S11311C02F5F3F4F3F832E83812F902FDF91CF914D
S11311D01F910F910895FA01AA27283051F1203167
S11311E081F1E8946F936E7F6E5F7F4F8F4F9F4FB7
S11311F0AF4FB1E03ED0B4E03CD0670F781F891FF9
S11312009A1FA11D680F791F8A1F911DA11D6A0FC6
S1131210711D811D911DA11D20D009F468943F9179
S11312202AE0269F11243019305D3193DEF6CF0178
S11312300895462F4770405D4193B3E00FD0C9F73E
S1131240F6CF462F4F70405D4A3318F0495D31FDAB
S11312504052419302D0A9F7EACFB4E0A6959795FE
S1131260879577956795BA95C9F7009761057105D4
S113127008959B01AC010A2E06945795479537951E
S11312802795BA95C9F7620F731F841F951FA01D78
S113129008952F923F924F925F926F927F928F9216
S11312A09F92AF92BF92CF92DF92EF92FF920F93F1
S11312B01F93CF93DF93CDB7DEB7CA1BDB0B0FB6FB
S11312C0F894DEBF0FBECDBF09942A8839884888B8
S11312D05F846E847D848C849B84AA84B984C8844E
S11312E0DF80EE80FD800C811B81AA81B981CE0F45
S11312F0D11D0FB6F894DEBF0FBECDBFED0108952A
S1071300F894FFCF8B
S113130448656C6C6F20576F726C642066726F6DE5
S113131420415652210A0D00506F736974696F6E2F
S10B13243A2000256C69000069
S9030000FC
