:100000000C9434000C9451000C94E8000C945100B2
:100010000C9451000C9451000C9451000C9451001C
:100020000C9451000C9451000C9451000C9451000C
:100030000C9451000C9480040C9451000C945100C9
:100040000C9433020C9451000C94BA050C9451009A
:100050000C9451000C9453000C9451000C945100DA
:100060000C9451000C94510011241FBECFEFD8E026
:10007000DEBFCDBF11E0A0E0B1E0E2EBF4E102C0F1
:1000800005900D92A031B107D9F722E0A0E1B1E0CF
:1000900001C01D92A737B207E1F70E9470000C94CF
:1000A000570A0C9400001F920F920FB60F92112462
:1000B0002F938F939F9381E080931201809178001A
:1000C0002091790090E0922B909311018093100180
:1000D0009F918F912F910F900FBE0F901F901895A9
:1000E000CF93DF93CDB7DEB72A970FB6F894DEBF74
:1000F0000FBECDBF83E30E947B0568EE73E082E014
:100100000E945A0441E065E08AE290E00E942301E7
:10011000E12CF12C8701A801970160E070E080E8F4
:100120009FE30E94AD0168EE73E080E090E00E94E2
:1001300026020E942F02FE0131968AE0DF011D9205
:100140008A95E9F70F2EF9E0EF2EF1E0FF2EF02D62
:100150008F0180E091E00E94A2050E94DF009F9342
:100160008F937F936F93FF92EF921F930F930E9451
:100170008607C8010E94A2058DE091E00E94A205B9
:10018000198288EE93E00E9469040FB6F894DEBFEE
:100190000FBECDBFDECF40E062E08AE290E00E9479
:1001A000230140E063E08AE290E00E942301E9E657
:1001B000F0E0808188608083E99A78940895609166
:1001C0001301709114018091150190911601089509
:1001D0001F920F920FB60F9211248F939F93AF939C
:1001E000BF934A9B14C08091130190911401A09178
:1001F0001501B09116010197A109B109809313016E
:1002000090931401A0931501B093160113C080912F
:10021000130190911401A0911501B091160101965E
:10022000A11DB11D8093130190931401A09315019A
:10023000B0931601BF91AF919F918F910F900FBE18
:100240000F901F901895442389F04130F1F4FC0180
:10025000408121E030E0F90102C0EE0FFF1F6A95F6
:10026000E2F7BF01642BFC0160830895FC0140812B
:1002700021E030E0F90102C0EE0FFF1F6A95E2F7BE
:10028000BF0160956423FC0160830895FC014081F7
:1002900021E030E0F90102C0EE0FFF1F6A95E2F79E
:1002A000BF01642BFC0160830895FC01408121E0C3
:1002B00030E0F90102C0EE0FFF1F6A95E2F7BF01BF
:1002C00060956423FC0160830895442389F04130E4
:1002D000F1F4FC01408121E030E0F90102C0EE0FB1
:1002E000FF1F6A95E2F7BF01642BFC01608308954C
:1002F000FC01408121E030E0F90102C0EE0FFF1F58
:100300006A95E2F7BF0160956423FC01608308955C
:1003100041E060E084E290E00E94230141E061E07E
:1003200084E290E00E94230141E062E084E290E0F8
:100330000E94230141E060E085E290E00E946501B7
:1003400040E061E085E290E00E94650140E062E00B
:1003500085E290E00E9465010895EF92FF920F936D
:100360001F936093190170931A0180931B0190935E
:100370001C0120931D0130931E0140931F015093D7
:100380002001E0922101F0922201009323011093B9
:10039000240184EF91E0A0E0B0E0809329019093E4
:1003A0002A01A0932B01B0932C0110922D011092E1
:1003B0002E0110922F011092300188EC90E0A0E005
:1003C000B0E08093390190933A01A0933B01B09340
:1003D0003C0110925101109252011092530110925F
:1003E000540110924501109246011092470110925B
:1003F00048011092250110922601109227011092B7
:10040000280110923D0110923E0110923F0110927E
:10041000400110923101109232011092330110927A
:100420003401109218010E94CB000E94880183E0E1
:1004300084BD8AE085BD81E080936E0084E687BD3F
:1004400078941F910F91FF90EF900895609325018C
:10045000709326018093270190932801089581E0ED
:100460008093170108951F920F920FB60F921124D7
:100470004F925F926F927F928F929F92AF92BF92B4
:10048000CF92DF92EF92FF920F931F932F933F93A0
:100490004F935F936F937F938F939F93AF93BF938C
:1004A000EF93FF93CF93DF93CDB7DEB72C97DEBFEB
:1004B000CDBF80911701813009F0D5C1E1E3F1E0B2
:1004C00080819181A281B3810196A11DB11D80839C
:1004D0009183A283B3834081518162817381809132
:1004E000290190912A01A0912B01B0912C0148176C
:1004F00059076A077B070CF464C11092310110920E
:10050000320110923301109234010E94DF006B011E
:100510007C018091250190912601A0912701B09145
:1005200028018C199D09AE09BF0921E431E0F901C8
:1005300080839183A283B383EDE4F1E04081518114
:1005400062817381D9018D909D90AD90BC90D50151
:10055000C401840F951FA61FB71F80839183A283B8
:10056000B38380819181A281B38185369105A105F4
:10057000B10564F084E690E0A0E0B0E080934D0126
:1005800090934E01A0934F01B09350010F2EF1E4D0
:100590006F2EF1E07F2EF02DF301408151816281B9
:1005A00073818091450190914601A0914701B091DE
:1005B000480180902D0190902E01A0902F01B090C5
:1005C00030018A019B01081B190B2A0B3B0BC90147
:1005D000B8010E949706A50194010E9423070E947A
:1005E0006406E9E4F1E06083718382839383809001
:1005F000190190901A01A0901B01B0901C01D30129
:100600006D917D918D919C9100911D0110911E0124
:1006100020911F013091200109831A832B833C8391
:1006200040904D0150904E0160904F0170905001EC
:100630002091210130912201409123015091240108
:100640002D833E834F83588700811181228133811E
:1006500009871A872B873C870E9497069B01AC016C
:10066000C501B4010E9423074B015C01C301B20123
:100670000E9497069B01AC0169817A818B819C81E4
:100680000E9423079B01AC01C501B4010E94000632
:100690004B015C0169857A858B859C850E94970654
:1006A0009B01AC016D817E818F8198850E9423071B
:1006B0009B01AC01C501B4010E9400060E946406C2
:1006C00016161706180619066CF510921801809078
:1006D000390190903A01A0903B01B0903C01861600
:1006E0009706A806B9068CF48091390190913A01D9
:1006F000A0913B01B0913C0180933501909336016C
:10070000A0933701B093380144C0DC01CB01AA2784
:10071000BB278093350190933601A0933701B093A6
:10072000380137C021E02093180180903901909062
:100730003A01A0903B01B0903C01B094A0949094F9
:100740008094811C911CA11CB11C681579058A0537
:100750009B058CF48091390190913A01A0913B0165
:10076000B0913C018093350190933601A0933701FD
:10077000B09338010EC0719561957109CB01A0E06D
:10078000B0E08093350190933601A0933701B09388
:100790003801C0925101D0925201E0925301F0927F
:1007A00054018091410190914201A0914301B09187
:1007B00044018093450190934601A0934701B09373
:1007C0004801EDE3F1E080819181A281B38101963E
:1007D000A11DB11D80839183A283B3834081518188
:1007E000628173818091390190913A01A0913B011E
:1007F000B0913C01481759076A077B07ECF08091DC
:10080000350190913601A0913701B0913801181649
:1008100019061A061B0684F410923D0110923E013F
:1008200010923F011092400180911801811102C085
:10083000299A19C02A9A17C040913D0150913E0152
:1008400060913F0170914001809135019091360196
:10085000A0913701B0913801481759076A077B0703
:1008600014F029982A982C960FB6F894DEBF0FBE84
:10087000CDBFDF91CF91FF91EF91BF91AF919F914C
:100880008F917F916F915F914F913F912F911F9128
:100890000F91FF90EF90DF90CF90BF90AF909F901F
:1008A0008F907F906F905F904F900F900FBE0F9042
:1008B0001F90189593E09093800088618093810049
:1008C00081E080936F007093890060938800789432
:1008D0000895A0E0B0E08093560190935701A09353
:1008E0005801B09359018091560190915701A09100
:1008F0005801B0915901892B8A2B8B2BA1F70895B0
:100900001F920F920FB60F9211242F933F934F9384
:100910005F936F937F938F939F93AF93BF93EF9367
:10092000FF9380915501813009F058C0E1E7F1E073
:1009300080819181A281B3810196A11DB11D808327
:100940009183A283B38340815181628173818091BD
:10095000690190916A01A0916B01B0916C014817F7
:1009600059076A077B07E8F080916D0190916E014D
:10097000A0916F01B0917001892B8A2B8B2B89F08C
:100980006091680180916601909167010E94460123
:100990001092710110927201109273011092740101
:1009A0001DC040917101509172016091730170916D
:1009B000740180916D0190916E01A0916F01B091D1
:1009C0007001481759076A077B0740F0609168017A
:1009D00080916601909167010E94550180916201AA
:1009E00090916301A0916401B0916501892B8A2BDC
:1009F0008B2B99F08091620190916301A091640129
:100A0000B09165010197A109B109809362019093AA
:100A10006301A0936401B093650180915E019091A0
:100A20005F01A0916001B0916101892B8A2B8B2B12
:100A300099F080915E0190915F01A0916001B09169
:100A400061010197A109B10980935E0190935F0153
:100A5000A0936001B093610180915A0190915B0174
:100A6000A0915C01B0915D01892B8A2B8B2B99F0B1
:100A700080915A0190915B01A0915C01B0915D0160
:100A80000197A109B10980935A0190935B01A0934A
:100A90005C01B0935D018091560190915701A09146
:100AA0005801B0915901892B8A2B8B2B99F0809199
:100AB000560190915701A0915801B09159010197A9
:100AC000A109B1098093560190935701A093580151
:100AD000B0935901FF91EF91BF91AF919F918F9189
:100AE0007F916F915F914F913F912F910F900FBE2A
:100AF0000F901F9018951092770110927601109226
:100B00007501E0917501F0E0E858FE4F1082E1ECCC
:100B1000F0E0908198699083E2ECF0E0908192603F
:100B2000908390E09093C5008093C40078940895DA
:100B3000109277018093C600E0ECF0E0808185FFA1
:100B4000FDCF0895CF93DF93EC018881882331F0A6
:100B500021960E94980589918111FBCFDF91CF9159
:100B6000089510927501E0917501F0E0E858FE4F8C
:100B7000108208951F920F920FB60F9211242F9397
:100B80003F934F935F936F937F938F939F93AF9315
:100B9000BF93EF93FF938091C600909175019D3FA5
:100BA000D8F4E0917501F0E0E858FE4F8083E091C1
:100BB0007501F0E0E758FE4F1082909175019F5F3C
:100BC00090937501882321F08A3011F08D3031F433
:100BD00081E08093760102C00E94B105FF91EF9100
:100BE000BF91AF919F918F917F916F915F914F9145
:100BF0003F912F910F900FBE0F901F901895505856
:100C0000BB27AA270ED0E5C0D6D030F0DBD020F02D
:100C100031F49F3F11F41EF4CBC00EF4E095E7FBD6
:100C2000C1C0E92FE7D080F3BA17620773078407C2
:100C3000950718F071F49EF5FFC00EF4E0950B2EA9
:100C4000BA2FA02D0B01B90190010C01CA01A0011E
:100C50001124FF27591B99F0593F50F4503E68F179
:100C60001A16F040A22F232F342F4427585FF3CFBA
:100C7000469537952795A795F0405395C9F77EF48B
:100C80001F16BA0B620B730B840BBAF09150A1F0D4
:100C9000FF0FBB1F661F771F881FC2F70EC0BA0F5A
:100CA000621F731F841F48F4879577956795B795E2
:100CB000F7959E3F08F0B3CF9395880F08F09927DA
:100CC000EE0F97958795089504D06894B111B5C03B
:100CD000089598D088F09F5790F0B92F9927B75171
:100CE000A0F0D1F0660F771F881F991F1AF0BA95F0
:100CF000C9F712C0B13081F09FD0B1E008959CC017
:100D0000672F782F8827B85F39F0B93FCCF38695E5
:100D100077956795B395D9F73EF490958095709542
:100D200061957F4F8F4F9F4F0895E89409C097FBBF
:100D30003EF490958095709561957F4F8F4F9F4FB2
:100D40009923A9F0F92F96E9BB279395F6958795F6
:100D500077956795B795F111F8CFFAF4BB0F11F4B9
:100D600060FF1BC06F5F7F4F8F4F9F4F16C0882360
:100D700011F096E911C0772321F09EE8872F762F96
:100D800005C0662371F096E8862F70E060E02AF0D7
:100D90009A95660F771F881FDAF7880F96958795C3
:100DA00097F9089597F99F6780E870E060E00895EB
:100DB0009FEF80EC089500240A9416161706180673
:100DC0000906089500240A9412161306140605064F
:100DD0000895092E0394000C11F4882352F0BB0FE0
:100DE00040F4BF2B11F460FF04C06F5F7F4F8F4F43
:100DF0009F4F089557FD9058440F551F59F05F3F7E
:100E000071F04795880F97FB991F61F09F3F79F02C
:100E100087950895121613061406551FF2CF4695AE
:100E2000F1DF08C0161617061806991FF1CF869530
:100E30007105610508940895E894BB276627772714
:100E4000CB0197F908950BD0C4CFB5DF28F0BADFF6
:100E500018F0952309F0A6CFABCF1124EECFCADF4F
:100E6000A0F3959FD1F3950F50E0551F629FF001BD
:100E7000729FBB27F00DB11D639FAA27F00DB11D16
:100E8000AA1F649F6627B00DA11D661F829F22279F
:100E9000B00DA11D621F739FB00DA11D621F839F26
:100EA000A00D611D221F749F3327A00D611D231FFC
:100EB000849F600D211D822F762F6A2F11249F574A
:100EC00050408AF0E1F088234AF0EE0FFF1FBB1F6D
:100ED000661F771F881F91505040A9F79E3F51050C
:100EE00070F060CFAACF5F3FECF3983EDCF38695BD
:100EF00077956795B795F795E7959F5FC1F7FE2BB7
:100F0000880F911D9695879597F90895AEE0B0E00A
:100F1000ECE8F7E00C942E0A0D891E8986E08C839C
:100F20001A8309838FEF9FE79E838D83AE01475E0F
:100F30005F4F6F89788DCE0101960E94A807EF81DF
:100F4000F885E00FF11F10822E96E4E00C944A0A17
:100F5000ACE0B0E0EEEAF7E00C94200A7C016B0113
:100F60008A01FC0117821682838181FFBDC1CE01F7
:100F700001964C01F7019381F60193FD859193FF52
:100F800081916F01882309F4ABC1853239F493FD57
:100F9000859193FF81916F01853229F4B70190E02B
:100FA0000E949009E7CF512C312C20E02032A0F490
:100FB0008B3269F030F4803259F0833269F4206169
:100FC0002CC08D3239F0803339F4216026C0226084
:100FD000246023C0286021C027FD27C030ED380FD2
:100FE0003A3078F426FF06C0FAE05F9E300D1124F7
:100FF000532E13C08AE0389E300D1124332E206208
:101000000CC08E3221F426FD6BC1206406C08C36E4
:1010100011F4206802C0883641F4F60193FD8591F1
:1010200093FF81916F018111C1CF982F9F7D9554BE
:10103000933028F40C5F1F4FFFE3F9830DC0833614
:1010400031F0833771F0833509F05BC022C0F801BD
:10105000808189830E5F1F4F44244394512C540197
:1010600015C03801F2E06F0E711CF801A080B1804C
:1010700026FF03C0652D70E002C06FEF7FEFC50152
:101080002C870E9485092C0183012C852F77222E25
:1010900017C03801F2E06F0E711CF801A080B1801A
:1010A00026FF03C0652D70E002C06FEF7FEFC50122
:1010B0002C870E947A092C012C852068222E83011E
:1010C00023FC1BC0832D90E048165906B0F4B701ED
:1010D00080E290E00E9490093A94F4CFF50127FC59
:1010E000859127FE81915F01B70190E00E949009F0
:1010F00031103A94F1E04F1A51084114510471F73C
:10110000E5C0843611F0893639F5F80127FF07C0AC
:1011100060817181828193810C5F1F4F08C0608163
:101120007181882777FD8095982F0E5F1F4F2F764E
:10113000B22E97FF09C090958095709561957F4F6D
:101140008F4F9F4F2068B22E2AE030E0A4010E940A
:10115000C209A82EA81844C0853729F42F7EB22EC4
:101160002AE030E025C0F22FF97FBF2E8F36C1F084
:1011700018F4883579F0B4C0803719F0883721F039
:10118000AFC02F2F2061B22EB4FE0DC08B2D846016
:10119000B82E09C024FF0AC09F2F9660B92E06C042
:1011A00028E030E005C020E130E002C020E132E07C
:1011B000F801B7FE07C060817181828193810C5F65
:1011C0001F4F06C06081718180E090E00E5F1F4F6D
:1011D000A4010E94C209A82EA818FB2DFF77BF2EDC
:1011E000B6FE0BC02B2D2E7FA51450F4B4FE0AC002
:1011F000B2FC08C02B2D2E7E05C07A2C2B2D03C0EF
:101200007A2C01C0752C24FF0DC0FE01EA0DF11DE2
:101210008081803311F4297E09C022FF06C07394B7
:10122000739404C0822F867809F0739423FD13C051
:1012300020FF06C05A2C731418F4530C5718732C43
:10124000731468F4B70180E290E02C870E94900943
:1012500073942C85F5CF731410F4371801C0312C1A
:1012600024FF12C0B70180E390E02C870E94900910
:101270002C8522FF17C021FF03C088E590E002C043
:1012800088E790E0B7010CC0822F867859F021FDE5
:1012900002C080E201C08BE227FD8DE2B70190E041
:1012A0000E949009A51438F4B70180E390E00E94F1
:1012B00090095A94F7CFAA94F401EA0DF11D8081A8
:1012C000B70190E00E949009A110F5CF332009F4F6
:1012D00051CEB70180E290E00E9490093A94F6CF97
:1012E000F7018681978102C08FEF9FEF2C96E2E194
:1012F0000C943C0AFC010590615070400110D8F735
:10130000809590958E0F9F1F0895FC01615070404D
:1013100001900110D8F7809590958E0F9F1F08952A
:101320000F931F93CF93DF93182F092FEB018B811E
:1013300081FD03C08FEF9FEF20C082FF10C04E8160
:101340005F812C813D81421753077CF4E881F9814C
:101350009F012F5F3F4F39832883108306C0E885A4
:10136000F985812F0995892B29F72E813F812F5FE0
:101370003F4F3F832E83812F902FDF91CF911F917D
:101380000F910895FA01AA27283051F1203181F1F7
:10139000E8946F936E7F6E5F7F4F8F4F9F4FAF4F7D
:1013A000B1E03ED0B4E03CD0670F781F891F9A1F90
:1013B000A11D680F791F8A1F911DA11D6A0F711D44
:1013C000811D911DA11D20D009F468943F912AE050
:1013D000269F11243019305D3193DEF6CF01089538
:1013E000462F4770405D4193B3E00FD0C9F7F6CF69
:1013F000462F4F70405D4A3318F0495D31FD405231
:10140000419302D0A9F7EACFB4E0A69597958795C6
:1014100077956795BA95C9F70097610571050895A5
:101420009B01AC010A2E0694579547953795279551
:10143000BA95C9F7620F731F841F951FA01D0895E9
:101440002F923F924F925F926F927F928F929F92D4
:10145000AF92BF92CF92DF92EF92FF920F931F93C2
:10146000CF93DF93CDB7DEB7CA1BDB0B0FB6F89473
:10147000DEBF0FBECDBF09942A88398848885F84B3
:101480006E847D848C849B84AA84B984C884DF8024
:10149000EE80FD800C811B81AA81B981CE0FD11D08
:1014A0000FB6F894DEBF0FBECDBFED010895F894DE
:0214B000FFCF6C
:1014B200436F756E74733A2000256C69000A0D0043
:00000001FF
