S02200006176722D6465762D626F6172642D6770696F2D6578616D706C652E7372656323
S11300000C9434000C943E000C943E000C943E007E
S11300100C943E000C943E000C943E000C943E0064
S11300200C943E000C943E000C943E000C943E0054
S11300300C943E000C943E000C943E000C943E0044
S11300400C943E000C943E000C943E000C943E0034
S11300500C943E000C943E000C943E000C943E0024
S11300600C943E000C943E0011241FBECFEFD8E048
S1130070DEBFCDBF0E9440000C94EA000C94000047
S113008040E066E08AE290E00E94810040E067E0A0
S11300908AE290E00E94810041E063E084E290E023
S11300A00E94810041E064E084E290E00E948100CB
S11300B0C0E011E0D0E003C0CD2F01C0CD2F66E039
S11300C08BE290E00E94C300892B31F063E085E26B
S11300D090E00E94A40005C063E085E290E00E94E5
S11300E0B30067E08BE290E00E94C300892B21F308
S11300F0C111E4CF64E085E290E00E94D300C12FF7
S1130100DECF442389F04130F1F4FC01408121E049
S113011030E0F90102C0EE0FFF1F6A95E2F7BF015C
S1130120642BFC0160830895FC01408121E030E0F0
S1130130F90102C0EE0FFF1F6A95E2F7BF01609557
S11301406423FC0160830895FC01408121E030E0D8
S1130150F90102C0EE0FFF1F6A95E2F7BF01642B9D
S1130160FC0160830895FC01408121E030E0F90145
S113017002C0EE0FFF1F6A95E2F7BF01609564238A
S1130180FC0160830895FC01208181E090E0AC01D2
S113019002C0440F551F6A95E2F7BA01622311F4B5
S11301A080E090E00895FC01208181E090E0AC01C2
S11301B002C0440F551F6A95E2F7BA01822F8423C7
S11301C029F0808160956823608308958081682B7D
S10B01D060830895F894FFCF49
S9030000FC
