:100000000C9434000C9451000C94F3000C945100A7
:100010000C9451000C9451000C9451000C9451001C
:100020000C9451000C9451000C9451000C9451000C
:100030000C9451000C94BF030C9451000C9451008B
:100040000C9470010C9451000C94F9040C94510020
:100050000C9451000C947A000C9451000C945100B3
:100060000C9451000C94510011241FBECFEFD8E026
:10007000DEBFCDBF11E0A0E0B1E0E0E3F3E102C0FC
:1000800005900D92AC30B107D9F722E0ACE0B1E0B9
:1000900001C01D92A337B207E1F70E9497000C94AC
:1000A00096090C940000ECE7F0E08081807D80836D
:1000B000EAE7F0E080818B6C8083EEE7F0E08081FE
:1000C000816080837894089580910E01882361F087
:1000D00010920E01ECE7F0E08081807D8083EAE7FA
:1000E000F0E0808180648083089580910C0190917C
:1000F0000D0108951F920F920FB60F9211242F93A6
:100100008F939F9381E080930E01809178002091DE
:10011000790090E0922B90930D0180930C019F91B8
:100120008F912F910F900FBE0F901F901895CF9326
:10013000DF93CDB7DEB76E970FB6F894DEBF0FBE74
:10014000CDBF68EE73E082E00E94990341E065E074
:100150008AE290E00E942E0183E30E94BA040E948A
:100160005300FE0131968EE1DF011D928A95E9F779
:100170000F2EF0E0CF2EF1E0DF2EF02D7F010E9458
:1001800064000E9475008C010D3291E0190734F073
:1001900065E08BE290E00E94510105C065E08BE2D2
:1001A00090E00E9460011F930F93DF92CF92FF9225
:1001B000EF920E94C506C7010E94E104198282E302
:1001C00090E00E94A8030F900F900F900F900F9057
:1001D0000F90D5CF60910F017091100180911101A6
:1001E0009091120108951F920F920FB60F92112451
:1001F0008F939F93AF93BF934A9B14C080910F013D
:1002000090911001A0911101B09112010197A109E3
:10021000B10980930F0190931001A0931101B09345
:10022000120113C080910F0190911001A091110152
:10023000B09112010196A11DB11D80930F01909301
:100240001001A0931101B0931201BF91AF919F9142
:100250008F910F900FBE0F901F901895442389F037
:100260004130F1F4FC01408121E030E0F90102C0AD
:10027000EE0FFF1F6A95E2F7BF01642BFC0160835C
:100280000895FC01408121E030E0F90102C0EE0F49
:10029000FF1F6A95E2F7BF0160956423FC0160834C
:1002A0000895FC01408121E030E0F90102C0EE0F29
:1002B000FF1F6A95E2F7BF01642BFC01608308957C
:1002C000FC01408121E030E0F90102C0EE0FFF1F88
:1002D0006A95E2F7BF0160956423FC01608308958D
:1002E0001F920F920FB60F9211244F925F926F924E
:1002F0007F928F929F92AF92BF92CF92DF92EF92B6
:10030000FF920F931F932F933F934F935F936F939E
:100310007F938F939F93AF93BF93EF93FF93CF936D
:10032000DF93CDB7DEB72C97DEBFCDBF8091130131
:10033000813009F0D7C1EDE2F1E080819181A281A5
:10034000B3810196A11DB11D80839183A283B383E4
:1003500040815181628173818091250190912601B4
:10036000A0912701B0912801481759076A077B0718
:100370000CF464C110922D0110922E0110922F01E5
:10038000109230010E94EA006B017C0180912101F2
:1003900090912201A0912301B09124018C199D0913
:1003A000AE09BF092DE331E0F90180839183A28377
:1003B000B383E9E4F1E04081518162817381D90125
:1003C0008D909D90AD90BC90D501C401840F951F78
:1003D000A61FB71F80839183A283B38380819181FD
:1003E000A281B381893C9105A105B10564F088EC37
:1003F00090E0A0E0B0E08093490190934A01A0937F
:100400004B01B0934C010F2EFDE36F2EF1E07F2ED8
:10041000F02DF3014081518162817381809141010E
:1004200090914201A0914301B09144018090290133
:1004300090902A01A0902B01B0902C018A019B0181
:10044000081B190B2A0B3B0BC901B8010E94D605EA
:10045000A50194010E9462060E94A305E5E4F1E073
:10046000608371838283938380901501909016013D
:10047000A0901701B0901801D3016D917D918D91DD
:100480009C910091190110911A0120911B0130914A
:100490001C0109831A832B833C83409049015090AF
:1004A0004A0160904B0170904C0120911D013091E8
:1004B0001E0140911F01509120012D833E834F83E7
:1004C0005887008111812281338109871A872B8700
:1004D0003C870E94D6059B01AC01C501B4010E9476
:1004E00062064B015C01C301B2010E94D6059B016B
:1004F000AC0169817A818B819C810E9462069B019B
:10050000AC01C501B4010E943F054B015C01698546
:100510007A858B859C850E94D6059B01AC016D81F7
:100520007E818F8198850E9462069B01AC01C50186
:10053000B4010E943F050E94A3051616170618066F
:1005400019066CF5109214018090350190903601D7
:10055000A0903701B090380186169706A806B90614
:100560008CF48091350190913601A0913701B091C2
:1005700038018093310190933201A0933301B093FD
:10058000340144C0DC01CB01AA27BB278093310191
:1005900090933201A0933301B093340137C021E02E
:1005A000209314018090350190903601A09037017E
:1005B000B0903801B094A09490948094811C911CC8
:1005C000A11CB11C681579058A059B058CF48091E6
:1005D000350190913601A0913701B0913801809397
:1005E000310190933201A0933301B09334010EC0D6
:1005F000719561957109CB01A0E0B0E08093310164
:1006000090933201A0933301B0933401C0924D0115
:10061000D0924E01E0924F01F092500180913D0145
:1006200090913E01A0913F01B09140018093410122
:1006300090934201A0934301B0934401E9E3F1E0B8
:1006400080819181A281B3810196A11DB11D80831A
:100650009183A283B38340815181628173818091B0
:10066000350190913601A0913701B09138014817BA
:1006700059076A077B07FCF08091310190913201A4
:10068000A0913301B0913401181619061A061B0601
:1006900094F41092390110923A0110923B01109299
:1006A0003C0180911401811103C0299A2A981AC033
:1006B0002A9A299817C04091390150913A016091C6
:1006C0003B0170913C018091310190913201A091E8
:1006D0003301B0913401481759076A077B0714F0BA
:1006E00029982A982C960FB6F894DEBF0FBECDBF7E
:1006F000DF91CF91FF91EF91BF91AF919F918F913A
:100700007F916F915F914F913F912F911F910F9129
:10071000FF90EF90DF90CF90BF90AF909F908F9021
:100720007F906F905F904F900F900FBE0F901F9033
:10073000189593E09093800088618093810081E018
:1007400080936F0070938900609388007894089577
:10075000A0E0B0E08093520190935301A093540124
:10076000B09355018091520190915301A091540191
:10077000B0915501892B8A2B8B2BA1F708951F92DD
:100780000F920FB60F9211242F933F934F935F93C5
:100790006F937F938F939F93AF93BF93EF93FF9349
:1007A00080915101813009F058C0EDE6F1E080817F
:1007B0009181A281B3810196A11DB11D8083918396
:1007C000A283B383408151816281738180916501ED
:1007D00090916601A0916701B0916801481759078F
:1007E0006A077B07E8F08091690190916A01A09106
:1007F0006B01B0916C01892B8A2B8B2B89F0609156
:10080000640180916201909163010E9451011092F4
:100810006D0110926E0110926F01109270011DC057
:1008200040916D0150916E0160916F017091700166
:100830008091690190916A01A0916B01B0916C0166
:10084000481759076A077B0740F06091640180915F
:100850006201909163010E94600180915E0190911C
:100860005F01A0916001B0916101892B8A2B8B2BD4
:1008700099F080915E0190915F01A0916001B0912B
:1008800061010197A109B10980935E0190935F0115
:10089000A0936001B093610180915A0190915B0136
:1008A000A0915C01B0915D01892B8A2B8B2B99F073
:1008B00080915A0190915B01A0915C01B0915D0122
:1008C0000197A109B10980935A0190935B01A0930C
:1008D0005C01B0935D018091560190915701A09108
:1008E0005801B0915901892B8A2B8B2B99F080915B
:1008F000560190915701A0915801B091590101976B
:10090000A109B1098093560190935701A093580112
:10091000B09359018091520190915301A0915401DB
:10092000B0915501892B8A2B8B2B99F08091520124
:1009300090915301A0915401B09155010197A109E3
:10094000B1098093520190935301A0935401B09345
:100950005501FF91EF91BF91AF919F918F917F9141
:100960006F915F914F913F912F910F900FBE0F901C
:100970001F901895109273011092720110927101DC
:10098000E0917101F0E0EC58FE4F1082E1ECF0E0F4
:10099000908198699083E2ECF0E09081926090837E
:1009A00090E09093C5008093C400789408951092CD
:1009B00073018093C600E0ECF0E0808185FFFDCFFD
:1009C0000895CF93DF93EC018881882331F021963D
:1009D0000E94D70489918111FBCFDF91CF910895B7
:1009E00010927101E0917101F0E0EC58FE4F10821D
:1009F00008951F920F920FB60F9211242F933F93D9
:100A00004F935F936F937F938F939F93AF93BF9316
:100A1000EF93FF938091C600909171019D3FD8F4B0
:100A2000E0917101F0E0EC58FE4F8083E09171019C
:100A3000F0E0EB58FE4F1082909171019F5F909310
:100A40007101882321F08A3011F08D3031F481E07A
:100A50008093720102C00E94F004FF91EF91BF9158
:100A6000AF919F918F917F916F915F914F913F9146
:100A70002F910F900FBE0F901F9018955058BB27C5
:100A8000AA270ED0E5C0D6D030F0DBD020F031F46C
:100A90009F3F11F41EF4CBC00EF4E095E7FBC1C0FC
:100AA000E92FE7D080F3BA17620773078407950729
:100AB00018F071F49EF5FFC00EF4E0950B2EBA2FDE
:100AC000A02D0B01B90190010C01CA01A001112454
:100AD000FF27591B99F0593F50F4503E68F11A1600
:100AE000F040A22F232F342F4427585FF3CF469591
:100AF00037952795A795F0405395C9F77EF41F16B3
:100B0000BA0B620B730B840BBAF09150A1F0FF0F7C
:100B1000BB1F661F771F881FC2F70EC0BA0F621F68
:100B2000731F841F48F4879577956795B795F79558
:100B30009E3F08F0B3CF9395880F08F09927EE0FEA
:100B400097958795089504D06894B111B5C008951C
:100B500098D088F09F5790F0B92F9927B751A0F0FF
:100B6000D1F0660F771F881F991F1AF0BA95C9F741
:100B700012C0B13081F09FD0B1E008959CC0672FC2
:100B8000782F8827B85F39F0B93FCCF386957795F1
:100B90006795B395D9F73EF49095809570956195DA
:100BA0007F4F8F4F9F4F0895E89409C097FB3EF405
:100BB00090958095709561957F4F8F4F9F4F9923AA
:100BC000A9F0F92F96E9BB279395F6958795779528
:100BD0006795B795F111F8CFFAF4BB0F11F460FFE8
:100BE0001BC06F5F7F4F8F4F9F4F16C0882311F040
:100BF00096E911C0772321F09EE8872F762F05C054
:100C0000662371F096E8862F70E060E02AF09A95EE
:100C1000660F771F881FDAF7880F9695879597F9E3
:100C2000089597F99F6780E870E060E008959FEF6E
:100C300080EC089500240A94161617061806090673
:100C4000089500240A941216130614060506089542
:100C5000092E0394000C11F4882352F0BB0F40F4CA
:100C6000BF2B11F460FF04C06F5F7F4F8F4F9F4F0A
:100C7000089557FD9058440F551F59F05F3F71F08C
:100C80004795880F97FB991F61F09F3F79F08795F3
:100C90000895121613061406551FF2CF4695F1DF7C
:100CA00008C0161617061806991FF1CF869571050C
:100CB000610508940895E894BB2766277727CB0140
:100CC00097F908950BD0C4CFB5DF28F0BADF18F03C
:100CD000952309F0A6CFABCF1124EECFCADFA0F346
:100CE000959FD1F3950F50E0551F629FF001729FC1
:100CF000BB27F00DB11D639FAA27F00DB11DAA1FE0
:100D0000649F6627B00DA11D661F829F2227B00D2C
:100D1000A11D621F739FB00DA11D621F839FA00DB7
:100D2000611D221F749F3327A00D611D231F849F07
:100D3000600D211D822F762F6A2F11249F5750405E
:100D40008AF0E1F088234AF0EE0FFF1FBB1F661FF9
:100D5000771F881F91505040A9F79E3F510570F0B2
:100D600060CFAACF5F3FECF3983EDCF38695779592
:100D70006795B795F795E7959F5FC1F7FE2B880FAD
:100D8000911D9695879597F90895AEE0B0E0EBEC4C
:100D9000F6E00C946D090D891E8986E08C831A8318
:100DA00009838FEF9FE79E838D83AE01475E5F4F80
:100DB0006F89788DCE0101960E94E706EF81F88554
:100DC000E00FF11F10822E96E4E00C948909ACE04C
:100DD000B0E0EDEEF6E00C945F097C016B018A0156
:100DE000FC0117821682838181FFBDC1CE0101966D
:100DF0004C01F7019381F60193FD859193FF819159
:100E00006F01882309F4ABC1853239F493FD8591D4
:100E100093FF81916F01853229F4B70190E00E9420
:100E2000CF08E7CF512C312C20E02032A0F48B32B8
:100E300069F030F4803259F0833269F420612CC0BB
:100E40008D3239F0803339F4216026C0226024606D
:100E500023C0286021C027FD27C030ED380F3A306D
:100E600078F426FF06C0FAE05F9E300D1124532E61
:100E700013C08AE0389E300D1124332E20620CC03E
:100E80008E3221F426FD6BC1206406C08C3611F42D
:100E9000206802C0883641F4F60193FD859193FFE6
:100EA00081916F018111C1CF982F9F7D955493300F
:100EB00028F40C5F1F4FFFE3F9830DC0833631F038
:100EC000833771F0833509F05BC022C0F80180815F
:100ED00089830E5F1F4F44244394512C540115C045
:100EE0003801F2E06F0E711CF801A080B18026FF7E
:100EF00003C0652D70E002C06FEF7FEFC5012C8746
:100F00000E94C4082C0183012C852F77222E17C044
:100F10003801F2E06F0E711CF801A080B18026FF4D
:100F200003C0652D70E002C06FEF7FEFC5012C8715
:100F30000E94B9082C012C852068222E830123FCF5
:100F40001BC0832D90E048165906B0F4B70180E22B
:100F500090E00E94CF083A94F4CFF50127FC8591E8
:100F600027FE81915F01B70190E00E94CF08311008
:100F70003A94F1E04F1A51084114510471F7E5C059
:100F8000843611F0893639F5F80127FF07C06081F2
:100F90007181828193810C5F1F4F08C060817181D4
:100FA000882777FD8095982F0E5F1F4F2F76B22EE2
:100FB00097FF09C090958095709561957F4F8F4FF1
:100FC0009F4F2068B22E2AE030E0A4010E94010960
:100FD000A82EA81844C0853729F42F7EB22E2AE007
:100FE00030E025C0F22FF97FBF2E8F36C1F018F404
:100FF000883579F0B4C0803719F0883721F0AFC058
:101000002F2F2061B22EB4FE0DC08B2D8460B82E20
:1010100009C024FF0AC09F2F9660B92E06C028E0A1
:1010200030E005C020E130E002C020E132E0F8010C
:10103000B7FE07C060817181828193810C5F1F4F71
:1010400006C06081718180E090E00E5F1F4FA401B7
:101050000E940109A82EA818FB2DFF77BF2EB6FE0F
:101060000BC02B2D2E7FA51450F4B4FE0AC0B2FC89
:1010700008C02B2D2E7E05C07A2C2B2D03C07A2C78
:1010800001C0752C24FF0DC0FE01EA0DF11D808109
:10109000803311F4297E09C022FF06C07394739433
:1010A00004C0822F867809F0739423FD13C020FFBB
:1010B00006C05A2C731418F4530C5718732C73145D
:1010C00068F4B70180E290E02C870E94CF08739407
:1010D0002C85F5CF731410F4371801C0312C24FF80
:1010E00012C0B70180E390E02C870E94CF082C85C6
:1010F00022FF17C021FF03C088E590E002C088E707
:1011000090E0B7010CC0822F867859F021FD02C013
:1011100080E201C08BE227FD8DE2B70190E00E94E2
:10112000CF08A51438F4B70180E390E00E94CF08FF
:101130005A94F7CFAA94F401EA0DF11D8081B7010A
:1011400090E00E94CF08A110F5CF332009F451CED2
:10115000B70180E290E00E94CF083A94F6CFF70101
:101160008681978102C08FEF9FEF2C96E2E10C946D
:101170007B09FC010590615070400110D8F7809503
:1011800090958E0F9F1F0895FC0161507040019053
:101190000110D8F7809590958E0F9F1F08950F939B
:1011A0001F93CF93DF93182F092FEB018B8181FDC4
:1011B00003C08FEF9FEF20C082FF10C04E815F8180
:1011C0002C813D81421753077CF4E881F9819F010E
:1011D0002F5F3F4F39832883108306C0E885F98548
:1011E000812F0995892B29F72E813F812F5F3F4F52
:1011F0003F832E83812F902FDF91CF911F910F91ED
:101200000895FA01AA27283051F1203181F1E8949C
:101210006F936E7F6E5F7F4F8F4F9F4FAF4FB1E0E9
:101220003ED0B4E03CD0670F781F891F9A1FA11DE4
:10123000680F791F8A1F911DA11D6A0F711D811DE5
:10124000911DA11D20D009F468943F912AE0269FAA
:1012500011243019305D3193DEF6CF010895462F09
:101260004770405D4193B3E00FD0C9F7F6CF462FEA
:101270004F70405D4A3318F0495D31FD4052419353
:1012800002D0A9F7EACFB4E0A69597958795779510
:101290006795BA95C9F700976105710508959B0197
:1012A000AC010A2E06945795479537952795BA9520
:1012B000C9F7620F731F841F951FA01D08952F92F9
:1012C0003F924F925F926F927F928F929F92AF92D6
:1012D000BF92CF92DF92EF92FF920F931F93CF9323
:1012E000DF93CDB7DEB7CA1BDB0B0FB6F894DEBFBA
:1012F0000FBECDBF09942A88398848885F846E84E0
:101300007D848C849B84AA84B984C884DF80EE8029
:10131000FD800C811B81AA81B981CE0FD11D0FB632
:10132000F894DEBF0FBECDBFED010895F894FFCF56
:0C1330004144433A202564200A0D0000CF
:00000001FF
