S02100006176722D6465762D626F6172642D6164632D6578616D706C652E73726563AB
S11300000C9434000C9451000C94C4000C945100D2
S11300100C9451000C9451000C9451000C94510018
S11300200C9451000C9451000C9451000C94510008
S11300300C9451000C9490030C9451000C945100B6
S11300400C9441010C9451000C9494040C945100B0
S11300500C9451000C947A000C9451000C945100AF
S11300600C9451000C94510011241FBECFEFD8E022
S1130070DEBFCDBF11E0A0E0B1E0E4ECFCE002C0E3
S113008005900D92A030B107D9F722E0A0E0B1E0CD
S113009001C01D92A636B207E1F70E9497000C94A6
S11300A060060C940000ECE7F0E08081807D8083A2
S11300B0EAE7F0E080818B6C8083EEE7F0E08081FA
S11300C0816080837894089580910201882361F08F
S11300D010920201ECE7F0E08081807D8083EAE702
S11300E0F0E0808180648083089580910001909184
S11300F0010108951F920F920FB60F9211242F93AE
S11301008F939F9381E080930201809178002091E6
S1130110790090E0922B90930101809300019F91CC
S11301208F912F910F900FBE0F901F90189568EE2E
S113013073E082E00E946A0341E065E08AE290E0B5
S11301400E94FF000E9453000E9464000E947500F8
S11301508D32914034F065E085E290E00E94220106
S113016005C065E085E290E00E94310188EE93E0ED
S11301700E947903EBCF6091030170910401809197
S113018005019091060108951F920F920FB60F92E8
S113019011248F939F93AF93BF934A9B14C0809174
S11301A0030190910401A0910501B091060101970A
S11301B0A109B1098093030190930401A09305015F
S11301C0B093060113C08091030190910401A091A2
S11301D00501B09106010196A11DB11D8093030193
S11301E090930401A0930501B0930601BF91AF91D0
S11301F09F918F910F900FBE0F901F9018954423DD
S113020089F04130F1F4FC01408121E030E0F90152
S113021002C0EE0FFF1F6A95E2F7BF01642BFC01D9
S113022060830895FC01408121E030E0F90102C0BF
S1130230EE0FFF1F6A95E2F7BF0160956423FC018E
S113024060830895FC01408121E030E0F90102C09F
S1130250EE0FFF1F6A95E2F7BF01642BFC01608378
S11302600895FC01408121E030E0F90102C0EE0F65
S1130270FF1F6A95E2F7BF0160956423FC01608368
S113028008951F920F920FB60F9211244F925F920E
S11302906F927F928F929F92AF92BF92CF92DF9292
S11302A0EF92FF920F931F932F933F934F935F937C
S11302B06F937F938F939F93AF93BF93EF93FF932A
S11302C0CF93DF93CDB7DEB72C97DEBFCDBF809140
S11302D00701813009F0D7C1E1E2F1E08081918129
S11302E0A281B3810196A11DB11D80839183A28354
S11302F0B38340815181628173818091190190910E
S11303001A01A0911B01B0911C01481759076A07F3
S11303107B070CF464C11092210110922201109207
S11303202301109224010E94BB006B017C01809187
S1130330150190911601A0911701B09118018C1923
S11303409D09AE09BF0921E331E0F901808391835E
S1130350A283B383EDE3F1E0408151816281738133
S1130360D9018D909D90AD90BC90D501C401840FAE
S1130370951FA61FB71F80839183A283B3838081B7
S11303809181A281B381893C9105A105B10564F0F5
S113039088EC90E0A0E0B0E080933D0190933E01B2
S11303A0A0933F01B09340010F2EF1E36F2EF1E0D3
S11303B07F2EF02DF3014081518162817381809100
S11303C0350190913601A0913701B09138018090A8
S11303D01D0190901E01A0901F01B09020018A0180
S11303E09B01081B190B2A0B3B0BC901B8010E9486
S11303F07105A50194010E94FD050E943E05E9E3F3
S1130400F1E06083718382839383809009019090EB
S11304100A01A0900B01B0900C01D3016D917D9164
S11304208D919C9100910D0110910E0120910F016D
S11304303091100109831A832B833C8340903D0142
S113044050903E0160903F01709040012091110155
S11304503091120140911301509114012D833E8378
S11304604F835887008111812281338109871A873C
S11304702B873C870E9471059B01AC01C501B40127
S11304800E94FD054B015C01C301B2010E9471058C
S11304909B01AC0169817A818B819C810E94FD055D
S11304A09B01AC01C501B4010E94DA044B015C015B
S11304B069857A858B859C850E9471059B01AC01B9
S11304C06D817E818F8198850E94FD059B01AC0121
S11304D0C501B4010E94DA040E943E0516161706EF
S11304E0180619066CF51092080180902901909065
S11304F02A01A0902B01B0902C0186169706A8061D
S1130500B9068CF48091290190912A01A0912B01C4
S1130510B0912C018093250190932601A09327018B
S1130520B093280144C0DC01CB01AA27BB278093E8
S1130530250190932601A0932701B093280137C089
S113054021E0209308018090290190902A01A09035
S11305502B01B0902C01B094A09490948094811CB1
S1130560911CA11CB11C681579058A059B058CF4A6
S11305708091290190912A01A0912B01B0912C0125
S11305808093250190932601A0932701B09328011D
S11305900EC0719561957109CB01A0E0B0E0809324
S11305A0250190932601A0932701B0932801C092BE
S11305B04101D0924201E0924301F09244018091C2
S11305C0310190913201A0913301B09134018093B3
S11305D0350190933601A0933701B0933801EDE2D1
S11305E0F1E080819181A281B3810196A11DB11DA9
S11305F080839183A283B38340815181628173811B
S11306008091290190912A01A0912B01B0912C0194
S1130610481759076A077B07FCF0809125019091E0
S11306202601A0912701B0912801181619061A066F
S11306301B0694F410922D0110922E0110922F019A
S11306401092300180910801811103C0299A2A98DF
S11306501AC02A9A299817C040912D0150912E0151
S113066060912F01709130018091250190912601B4
S1130670A0912701B0912801481759076A077B0701
S113068014F029982A982C960FB6F894DEBF0FBE62
S1130690CDBFDF91CF91FF91EF91BF91AF919F912A
S11306A08F917F916F915F914F913F912F911F9106
S11306B00F91FF90EF90DF90CF90BF90AF909F90FD
S11306C08F907F906F905F904F900F900FBE0F9020
S11306D01F90189593E09093800088618093810027
S11306E081E080936F007093890060938800789410
S11306F00895A0E0B0E08093460190934701A09351
S11307004801B09349018091460190914701A0911D
S11307104801B0914901892B8A2B8B2BA1F70895AD
S11307201F920F920FB60F9211242F933F934F9362
S11307305F936F937F938F939F93AF93BF93EF9345
S1130740FF9380914501813009F058C0E1E6F1E062
S113075080819181A281B3810196A11DB11D808305
S11307609183A283B383408151816281738180919B
S1130770590190915A01A0915B01B0915C01481715
S113078059076A077B07E8F080915D0190915E014B
S1130790A0915F01B0916001892B8A2B8B2B89F08A
S11307A06091580180915601909157010E94220155
S11307B0109261011092620110926301109264011F
S11307C01DC040916101509162016091630170917B
S11307D0640180915D0190915E01A0915F01B091EF
S11307E06001481759076A077B0740F06091580178
S11307F080915601909157010E94310180915201DC
S113080090915301A0915401B0915501892B8A2BE9
S11308108B2B99F08091520190915301A091540136
S1130820B09155010197A109B109809352019093A8
S11308305301A0935401B093550180914E019091BE
S11308404F01A0915001B0915101892B8A2B8B2B20
S113085099F080914E0190914F01A0915001B09177
S113086051010197A109B10980934E0190934F0161
S1130870A0935001B093510180914A0190914B0192
S1130880A0914C01B0914D01892B8A2B8B2B99F0AF
S113089080914A0190914B01A0914C01B0914D017E
S11308A00197A109B10980934A0190934B01A09348
S11308B04C01B0934D018091460190914701A09164
S11308C04801B0914901892B8A2B8B2B99F0809197
S11308D0460190914701A0914801B09149010197C7
S11308E0A109B1098093460190934701A09348015F
S11308F0B0934901FF91EF91BF91AF919F918F9177
S11309007F916F915F914F913F912F910F900FBE07
S11309100F901F90189510926501E0916501F0E029
S1130920E959FE4F108208951F920F920FB60F924D
S113093011242F933F934F935F936F937F938F93E0
S11309409F93AF93BF93EF93FF938091C6009091D1
S113095065019D3FD8F4E0916501F0E0E959FE4F4F
S11309608083E0916501F0E0E859FE4F1082909198
S113097065019F5F90936501882321F08A3011F00F
S11309808D3031F481E08093660102C00E948B04B3
S1130990FF91EF91BF91AF919F918F917F916F9153
S11309A05F914F913F912F910F900FBE0F901F9029
S11309B018955058BB27AA270ED0E5C0D6D030F0E2
S11309C0DBD020F031F49F3F11F41EF4CBC00EF4C1
S11309D0E095E7FBC1C0E92FE7D080F3BA176207BF
S11309E073078407950718F071F49EF5FFC00EF4A1
S11309F0E0950B2EBA2FA02D0B01B90190010C012B
S1130A00CA01A0011124FF27591B99F0593F50F442
S1130A10503E68F11A16F040A22F232F342F44279A
S1130A20585FF3CF469537952795A795F040539592
S1130A30C9F77EF41F16BA0B620B730B840BBAF062
S1130A409150A1F0FF0FBB1F661F771F881FC2F7CD
S1130A500EC0BA0F621F731F841F48F487957795E1
S1130A606795B795F7959E3F08F0B3CF9395880F98
S1130A7008F09927EE0F97958795089504D0689408
S1130A80B111B5C0089598D088F09F5790F0B92F50
S1130A909927B751A0F0D1F0660F771F881F991FCF
S1130AA01AF0BA95C9F712C0B13081F09FD0B1E005
S1130AB008959CC0672F782F8827B85F39F0B93F15
S1130AC0CCF3869577956795B395D9F73EF49095D1
S1130AD08095709561957F4F8F4F9F4F0895E8944F
S1130AE009C097FB3EF490958095709561957F4F72
S1130AF08F4F9F4F9923A9F0F92F96E9BB27939520
S1130B00F695879577956795B795F111F8CFFAF42F
S1130B10BB0F11F460FF1BC06F5F7F4F8F4F9F4F60
S1130B2016C0882311F096E911C0772321F09EE8BE
S1130B30872F762F05C0662371F096E8862F70E024
S1130B4060E02AF09A95660F771F881FDAF7880FFE
S1130B509695879597F9089597F99F6780E870E0CF
S1130B6060E008959FEF80EC089500240A9416161F
S1130B70170618060906089500240A941216130687
S1130B80140605060895092E0394000C11F4882315
S1130B9052F0BB0F40F4BF2B11F460FF04C06F5F31
S1130BA07F4F8F4F9F4F089557FD9058440F551F07
S1130BB059F05F3F71F04795880F97FB991F61F0DB
S1130BC09F3F79F087950895121613061406551F52
S1130BD0F2CF4695F1DF08C0161617061806991FBE
S1130BE0F1CF86957105610508940895E894BB27B3
S1130BF066277727CB0197F908950BD0C4CFB5DFCB
S1130C0028F0BADF18F0952309F0A6CFABCF112452
S1130C10EECFCADFA0F3959FD1F3950F50E0551F97
S1130C20629FF001729FBB27F00DB11D639FAA273D
S1130C30F00DB11DAA1F649F6627B00DA11D661F8C
S1130C40829F2227B00DA11D621F739FB00DA11DAD
S1130C50621F839FA00D611D221F749F3327A00D67
S1130C60611D231F849F600D211D822F762F6A2F03
S1130C7011249F5750408AF0E1F088234AF0EE0F88
S1130C80FF1FBB1F661F771F881F91505040A9F795
S1130C909E3F510570F060CFAACF5F3FECF3983EC2
S1130CA0DCF3869577956795B795F795E7959F5FFC
S1130CB0C1F7FE2B880F911D9695879597F9089596
S1070CC0F894FFCFD2
S9030000FC
