S02100006176722D6465762D626F6172642D70776D2D6578616D706C652E737265637F
S11300000C9434000C9451000C94D3000C945100C3
S11300100C9451000C9451000C9451000C94510018
S11300200C9451000C9451000C9451000C94510008
S11300300C9451000C94FB020C9451000C9451004C
S11300400C9451000C9451000C9458040C945100DD
S11300500C9451000C9453000C9451000C945100D6
S11300600C9451000C94510011241FBECFEFD8E022
S1130070DEBFCDBF11E0A0E0B1E0ECE1FDE002C0E5
S113008005900D92A030B107D9F722E0A0E0B1E0CD
S113009001C01D92AA35B207E1F70E9470000C94CA
S11300A08C060C9400001F920F920FB60F9211242D
S11300B02F938F939F9381E0809302018091780026
S11300C02091790090E0922B90930101809300019C
S11300D09F918F912F910F900FBE0F901F901895A5
S11300E0CF93DF93CDB7DEB72F970FB6F894DEBF6B
S11300F00FBECDBF64E670E082E00E94560141E08D
S113010060E084E290E00E94100185E290E09A832E
S113011089831B8288EC90E0A0E0B0E08C839D830F
S1130120AE83BF83188619861A861B86CE01019674
S11301300E94650110E00F2EF8EC9F2EF02DA12CEB
S1130140B12C00E0812C0DC0612F70E080E090E0C4
S11301500E94930182E390E00E94E4021F5F01C0C9
S1130160182D183C88F3C92CDA2CEB2CF02EC7017F
S1130170B6010E94930182E390E00E94E40281E0D0
S1130180C81AD108E108F108C114D104E104F1044A
S113019071F7E6CF6091030170910401809105012C
S11301A09091060108951F920F920FB60F92112499
S11301B08F939F93AF93BF934A9B14C08091030185
S11301C090910401A0910501B09106010197A10944
S11301D0B1098093030190930401A0930501B093A6
S11301E0060115C04A9913C080910301909104013E
S11301F0A0910501B09106010196A11DB11D809346
S1130200030190930401A0930501B0930601BF91EB
S1130210AF919F918F910F900FBE0F901F901895E3
S1130220442389F04130F1F4FC01408121E030E0C5
S1130230F90102C0EE0FFF1F6A95E2F7BF01642BBC
S1130240FC0160830895FC01408121E030E0F90164
S113025002C0EE0FFF1F6A95E2F7BF0160956423A9
S1130260FC0160830895442389F04130F1F4FC01DA
S1130270408121E030E0F90102C0EE0FFF1F6A95D2
S1130280E2F7BF01642BFC0160830895FC01408107
S113029021E030E0F90102C0EE0FFF1F6A95E2F79A
S11302A0BF0160956423FC016083089593E09093FB
S11302B0800088618093810081E080936F00709357
S11302C089006093880078940895FC01808191816D
S11302D090934B0180934A01828180934C01438126
S11302E054816581768140934D0150934E01609312
S11302F04F017093500187819085A185B2858093C9
S1130300510190935201A0935301B0935401109260
S1130310550110925601109257011092580181E034
S11303208093080108950F931F9300914D0110913C
S11303304E0120914F0130915001601771078207DF
S1130340930748F4609351017093520180935301D1
S11303509093540110C080914D0190914E01A09151
S11303604F01B09150018093510190935201A09399
S11303705301B09354011F910F9108954F925F92CE
S11303806F927F928F929F92AF92BF92CF92DF92A1
S1130390EF92FF92CF93DF93CDB7DEB72C970FB6D2
S11303A0F894DEBF0FBECDBF0E94CA006B017C0172
S11303B020912601309127018091460190914701B7
S11303C0A0914801B0914901820F931F8C199D0996
S11303D0A0E0B0E026E331E0F90180839183A283B9
S11303E0B383E2E4F1E04081518162817381D901F8
S11303F08D909D90AD90BC90D501C401840F951F44
S1130400A61FB71F80839183A283B38380819181C8
S1130410A281B381893C9105A105B10564F088EC02
S113042090E0A0E0B0E08093420190934301A09358
S11304304401B093450126E331E0F90180819181C3
S1130440A281B38140913A0150913B0160913C01FA
S113045070913D01841B950BA60BB70BEEE3F1E005
S113046080839183A283B38380901A0190901B01AF
S1130470A0901C01B0901D01D9016D917D918D91C9
S11304809C9120911E0130911F01409120015091B7
S1130490210129833A834B835C834090420150902D
S11304A043016090440170904501209122013091F4
S11304B0230140912401509125012D833E834F83D4
S11304C05887208131814281538129873A874B871C
S11304D05C870E949D059B01AC01C501B4010E948B
S11304E029064B015C01C301B2010E949D059B01D9
S11304F0AC0169817A818B819C810E9429069B01D0
S1130500AC01C501B4010E949E044B015C016985E4
S11305107A858B859C850E949D059B01AC016D812C
S11305207E818F8198850E9429069B01AC01C501BB
S1130530B4010E949E0420E030E040E251E40E94B5
S113054002050E946A052091320130913301261779
S1130550370748F48091320190913301909331012F
S11305608093300104C07093310160933001C092D4
S11305704601D0924701E0924801F09249018091EE
S1130580360190913701A0913801B09139018093DF
S11305903A0190933B01A0933C01B0933D012C960A
S11305A00FB6F894DEBF0FBECDBFDF91CF91FF90A1
S11305B0EF90DF90CF90BF90AF909F908F907F90FF
S11305C06F905F904F900895A0E0B0E08093090190
S11305D090930A01A0930B01B0930C01809109013F
S11305E090910A01A0910B01B0910C01892B8A2BE7
S11305F08B2BA1F708951F920F920FB60F9211241F
S11306002F933F934F935F936F937F938F939F9316
S1130610AF93BF93EF93FF9380910801813009F06A
S11306205AC0E5E5F1E080819181A281B381019610
S1130630A11DB11D80839183A283B3834081518125
S11306406281738180914D0190914E01A0914F017F
S1130650B0915001481759076A077B07F0F0809161
S1130660510190915201A0915301B0915401892BF1
S11306708A2B8B2B91F060914C0180914A019091CF
S11306804B0141E00E943301109255011092560132
S113069010925701109258011EC04091550150917B
S11306A056016091570170915801809151019091C8
S11306B05201A0915301B0915401481759076A0798
S11306C07B0748F060914C0180914A0190914B0165
S11306D040E00E94330180910701813009F052C04B
S11306E0EEE2F1E080819181019691838083208103
S11306F0318180912801909129012817390730F020
S113070010922F0110922E010E94BE01E4E3F1E049
S113071080819181019691838083208131818091B0
S113072032019091330128173907B0F080913001DC
S113073090913101892B81F010923501109234018E
S113074080911901811102C0299A1CC0809119015C
S11307508130C1F42A9A16C02091340130913501B8
S113076080913001909131012817390758F0809118
S11307701901811102C0299805C0809119018130A5
S113078009F42A988091150190911601A0911701FE
S1130790B0911801892B8A2B8B2B99F0809115012C
S11307A090911601A0911701B09118010197A10928
S11307B0B1098093150190931601A0931701B0938A
S11307C018018091110190911201A0911301B0912F
S11307D01401892B8A2B8B2B99F080911101909114
S11307E01201A0911301B09114010197A109B1095B
S11307F08093110190931201A0931301B0931401FB
S113080080910D0190910E01A0910F01B091100102
S1130810892B8A2B8B2B99F080910D0190910E01DD
S1130820A0910F01B09110010197A109B109809322
S11308300D0190930E01A0930F01B09310018091CC
S1130840090190910A01A0910B01B0910C01892B2F
S11308508A2B8B2B99F08091090190910A01A09128
S11308600B01B0910C010197A109B1098093090111
S113087090930A01A0930B01B0930C01FF91EF91A7
S1130880BF91AF919F918F917F916F915F914F91A4
S11308903F912F910F900FBE0F901F9018951092BB
S11308A05901E0915901F0E0E55AFE4F1082089594
S11308B01F920F920FB60F9211242F933F934F93D1
S11308C05F936F937F938F939F93AF93BF93EF93B4
S11308D0FF938091C600909159019D3FD8F4E09117
S11308E05901F0E0E55AFE4F8083E0915901F0E0B0
S11308F0E45AFE4F1082909159019F5F90935901E1
S1130900882321F08A3011F08D3031F481E0809316
S11309105A0102C00E944F04FF91EF91BF91AF9121
S11309209F918F917F916F915F914F913F912F9103
S11309300F900FBE0F901F9018955058BB27AA27F1
S11309400ED04DC13ED130F043D120F031F49F3F61
S113095011F41EF433C10EF4E095E7FB29C1E92F2D
S11309604FD180F3BA17620773078407950718F00D
S113097071F49EF567C10EF4E0950B2EBA2FA02DED
S11309800B01B90190010C01CA01A0011124FF2738
S1130990591B99F0593F50F4503E68F11A16F04033
S11309A0A22F232F342F4427585FF3CF4695379532
S11309B02795A795F0405395C9F77EF41F16BA0BF7
S11309C0620B730B840BBAF09150A1F0FF0FBB1FA5
S11309D0661F771F881FC2F70EC0BA0F621F731FEE
S11309E0841F48F4879577956795B795F7959E3F4B
S11309F008F0B3CF9395880F08F09927EE0F9795D9
S1130A00879508950CD0EBC0E3D040F0DAD030F0F5
S1130A1021F45F3F19F0CCC0511115C1CFC0F0D003
S1130A2098F39923C9F35523B1F3951B550BBB27B1
S1130A30AA2762177307840738F09F5F5F4F220F5E
S1130A40331F441FAA1FA9F333D00E2E3AF0E0E857
S1130A5030D091505040E695001CCAF729D0FE2FA3
S1130A6027D0660F771F881FBB1F26173707480735
S1130A70AB07B0E809F0BB0B802DBF01FF279358EB
S1130A805F4F2AF09E3F510568F092C0DCC05F3F83
S1130A90ECF3983EDCF3869577956795B795F795D3
S1130AA09F5FC9F7880F911D9695879597F90895CB
S1130AB0E1E0660F771F881FBB1F62177307840767
S1130AC0BA0720F0621B730B840BBA0BEE1F88F776
S1130AD0E095089504D06894B111B5C0089598D0F4
S1130AE088F09F5790F0B92F9927B751A0F0D1F013
S1130AF0660F771F881F991F1AF0BA95C9F712C09D
S1130B00B13081F09FD0B1E008959CC0672F782F59
S1130B108827B85F39F0B93FCCF386957795679508
S1130B20B395D9F73EF490958095709561957F4F74
S1130B308F4F9F4F0895E89409C097FB3EF490951A
S1130B408095709561957F4F8F4F9F4F9923A9F0A2
S1130B50F92F96E9BB279395F69587957795679531
S1130B60B795F111F8CFFAF4BB0F11F460FF1BC075
S1130B706F5F7F4F8F4F9F4F16C0882311F096E908
S1130B8011C0772321F09EE8872F762F05C06623B6
S1130B9071F096E8862F70E060E02AF09A95660F6F
S1130BA0771F881FDAF7880F9695879597F9089528
S1130BB097F99F6780E870E060E008959FEF80EC0C
S1130BC0089500240A9416161706180609060895AF
S1130BD000240A9412161306140605060895092E15
S1130BE00394000C11F4882352F0BB0F40F4BF2B84
S1130BF011F460FF04C06F5F7F4F8F4F9F4F0895C4
S1130C0057FD9058440F551F59F05F3F71F04795B9
S1130C10880F97FB991F61F09F3F79F0879508959E
S1130C20121613061406551FF2CF4695F1DF08C0BD
S1130C30161617061806991FF1CF869571056105DA
S1130C4008940895E894BB2766277727CB0197F982
S1130C5008950BD0C4CFB5DF28F0BADF18F0952380
S1130C6009F0A6CFABCF1124EECFCADFA0F3959F36
S1130C70D1F3950F50E0551F629FF001729FBB277F
S1130C80F00DB11D639FAA27F00DB11DAA1F649F2B
S1130C906627B00DA11D661F829F2227B00DA11DDE
S1130CA0621F739FB00DA11D621F839FA00D611D64
S1130CB0221F749F3327A00D611D231F849F600D85
S1130CC0211D822F762F6A2F11249F5750408AF0BE
S1130CD0E1F088234AF0EE0FFF1FBB1F661F771F4A
S1130CE0881F91505040A9F79E3F510570F060CF86
S1130CF0AACF5F3FECF3983EDCF386957795679532
S1130D00B795F795E7959F5FC1F7FE2B880F911D67
S10F0D109695879597F90895F894FFCF05
S9030000FC
