S01500006176725F6465765F626F6172642E73726563C1
S11300000C9434000C9451000C94C8000C945100CE
S11300100C9451000C9451000C9451000C94510018
S11300200C9451000C9451000C9451000C94510008
S11300300C9451000C94C1020C9451000C94510086
S11300400C9451000C9451000C9432040C94510003
S11300500C9451000C9453000C9451000C945100D6
S11300600C9451000C94510011241FBECFEFD8E022
S1130070DEBFCDBF11E0A0E0B1E0E8EFFCE002C0DC
S113008005900D92A030B107D9F722E0A0E0B1E0CD
S113009001C01D92AB35B207E1F70E9470000C94C9
S11300A07A060C9400001F920F920FB60F9211243F
S11300B02F938F939F9381E0809302018091780026
S11300C02091790090E0922B90930101809300019C
S11300D09F918F912F910F900FBE0F901F901895A5
S11300E083E30E940C040E944B0168EE73E082E0FB
S11300F00E945B010F2EF8EECF2EF3E0DF2EF02DE1
S1130100E12CF12C00E81FE320E030E0A901C80154
S1130110B7010E946A0181E00E94BB0180E090E087
S11301200E94B3010E94550180EA9FE00E94AA0246
S11301300E94580180EA9FE00E94AA020E94520194
S113014080EA9FE00E94AA020E94580180EA9FE090
S11301500E94AA02E7CF40E062E08AE290E00E94B7
S1130160050140E063E08AE290E00E940501E9E6CF
S1130170F0E0808188608083E99A789408956091A2
S11301800301709104018091050190910601089585
S11301901F920F920FB60F9211248F939F93AF93D8
S11301A0BF934A9B14C08091030190910401A091D4
S11301B00501B09106010197A109B10980930301DA
S11301C090930401A0930501B093060115C04A99C8
S11301D013C08091030190910401A0910501B09195
S11301E006010196A11DB11D8093030190930401A2
S11301F0A0930501B0930601BF91AF919F918F9198
S11302000F900FBE0F901F901895442389F0413032
S1130210F1F4FC01408121E030E0F90102C0EE0F6D
S1130220FF1F6A95E2F7BF01642BFC016083089508
S1130230FC01408121E030E0F90102C0EE0FFF1F14
S11302406A95E2F7BF0160956423FC016083089519
S1130250442389F04130F1F4FC01408121E030E095
S1130260F90102C0EE0FFF1F6A95E2F7BF01642B8C
S1130270FC0160830895FC01408121E030E0F90134
S113028002C0EE0FFF1F6A95E2F7BF016095642379
S1130290FC0160830895209A219A229A289A299829
S11302A02A98089529982A9A0895299A2A980895A7
S11302B029982A98089593E0909380008861809308
S11302C0810081E080936F007093890060938800BF
S11302D078940895CF92DF92EF92FF920F931F9339
S11302E060931A0170931B0180931C0190931D016C
S11302F020931E0130931F0140932001509321014C
S1130300E0922201F092230100932401109325012D
S1130310D0922901C092280181E090E0B6010E94A8
S1130320660680E090E00E94750560932A01709350
S11303302B0180932C0190932D0188EC90E09093F5
S11303403301809332010E94AB0064E670E082E0E6
S11303500E945B010E944B011F910F91FF90EF904F
S1130360DF90CF900895909327018093260181E038
S11303708093070108958093190108954F925F9225
S11303806F927F928F929F92AF92BF92CF92DF92A1
S1130390EF92FF92CF93DF9300D000D0CDB7DEB7BA
S11303A00E94BF0069837A838B839C8320914601DA
S11303B0309147018091260190912701820F931F6C
S11303C029813A81821B930B6C01E12CF12CC092A0
S11303D03601D0923701E0923801F09239018091D0
S11303E0420190914301A0914401B09145018C0DCB
S11303F09D1DAE1DBF1D893C9105A105B1054CF4A1
S11304008093420190934301A0934401B09345012A
S11304100CC088EC90E0A0E0B0E08093420190939F
S11304204301A0934401B093450180913A01909116
S11304303B01A0913C01B0913D0146015701881A4E
S1130440990AAA0ABB0A80923E0190923F01A092A7
S11304504001B0924101C701B6010E947705209185
S11304601A0130911B0140911C0150911D010E9401
S113047003062B013C01609142017091430180917C
S11304804401909145010E94770520911E0130910D
S11304901F0140912001509121010E9403069B01FC
S11304A0AC01C301B2010E9478042B013C01C501D7
S11304B0B4010E94770520912201309123014091DB
S11304C02401509125010E9403069B01AC01C30144
S11304D0B2010E94780420E030E040E251E40E943E
S11304E0DC040E9444052091320130913301261727
S11304F0370728F4309331012093300104C07093FE
S113050031016093300189819A81AB81BC818093F0
S1130510460190934701A0934801B0934901C092CA
S11305203A01D0923B01E0923C01F0923D010F90E0
S11305300F900F900F90DF91CF91FF90EF90DF908D
S1130540CF90BF90AF909F908F907F906F905F906F
S11305504F900895A0E0B0E08093090190930A01C0
S1130560A0930B01B0930C018091090190910A01B1
S1130570A0910B01B0910C01892B8A2B8B2BA1F735
S113058008951F920F920FB60F9211242F933F9349
S11305904F935F936F937F938F939F93AF93BF9387
S11305A0EF93FF9380910801813009F04EC0E5E597
S11305B0F1E080819181A281B3810196A11DB11DD9
S11305C080839183A283B38340914D0150914E0166
S11305D060914F017091500184179507A607B707E2
S11305E0F0F08091510190915201A0915301B0918A
S11305F05401892B8A2B8B2BF9F041E060914C013B
S113060080914A0190914B010E942801109255015A
S113061010925601109257011092580116C0409141
S1130620510150915201609153017091540184170A
S11306309507A607B70748F040E060914C01809108
S11306404A0190914B010E94280180910701813059
S113065009F04FC0EEE2F1E080819181019691832F
S1130660808320813181809128019091290128176C
S1130670390730F010922F0110922E010E94BE0112
S1130680E4E3F1E08081918101969183808320816C
S11306903181809132019091330128173907A8F0F4
S11306A08091300190913101892B09F49FC01092FF
S11306B035011092340180911901811102C0299AE7
S11306C018C08130B1F42A9A14C0209134013091B9
S11306D0350180913001909131012817390748F094
S11306E080911901811102C0299803C0813009F455
S11306F02A988091150190911601A0911701B0914B
S11307001801892B8A2B8B2B99F0809115019091DC
S11307101601A0911701B09118010197A109B1091F
S11307208093150190931601A0931701B0931801BB
S11307308091110190911201A0911301B0911401C3
S1130740892B8A2B8B2B99F08091110190911201A6
S1130750A0911301B09114010197A109B1098093EB
S1130760110190931201A0931301B093140180918D
S11307700D0190910E01A0910F01B0911001892BF0
S11307808A2B8B2B99F080910D0190910E01A091F1
S11307900F01B09110010197A109B10980930D01D6
S11307A090930E01A0930F01B09310018091090161
S11307B090910A01A0910B01B0910C01892B8A2B15
S11307C08B2BC9F08091090190910A01A0910B0132
S11307D0B0910C010197A109B1098093090190938B
S11307E00A01A0930B01B0930C0105C08091340160
S11307F09091350175CFFF91EF91BF91AF919F918A
S11308008F917F916F915F914F913F912F910F90B5
S11308100FBE0F901F90189510925B0110925A0111
S113082010925901E0915901F0E0E45AFE4F108210
S1130830E1ECF0E0908198699083E2ECF0E0908143
S11308409260908390E09093C5008093C400789464
S1130850089510925901E0915901F0E0E45AFE4FD5
S1130860108208951F920F920FB60F9211242F93A6
S11308703F934F935F936F937F938F939F93AF9324
S1130880BF93EF93FF938091C600909159019D3FD0
S1130890D8F4E0915901F0E0E45AFE4F8083E091EE
S11308A05901F0E0E35AFE4F1082909159019F5F85
S11308B090935901882321F08A3011F08D3031F45E
S11308C081E080935A0102C00E942904FF91EF91B4
S11308D0BF91AF919F918F917F916F915F914F9154
S11308E03F912F910F900FBE0F901F901895505865
S11308F0BB27AA270ED04DC13ED130F043D120F002
S113090031F49F3F11F41EF433C10EF4E095E7FB7C
S113091029C1E92F4FD180F3BA17620773078407FF
S1130920950718F071F49EF567C10EF4E0950B2E4F
S1130930BA2FA02D0B01B90190010C01CA01A0012D
S11309401124FF27591B99F0593F50F4503E68F188
S11309501A16F040A22F232F342F4427585FF3CFC9
S1130960469537952795A795F0405395C9F77EF49A
S11309701F16BA0B620B730B840BBAF09150A1F0E3
S1130980FF0FBB1F661F771F881FC2F70EC0BA0F69
S1130990621F731F841F48F4879577956795B795F1
S11309A0F7959E3F08F0B3CF9395880F08F09927E9
S11309B0EE0F9795879508950CD0EBC0E3D040F0E7
S11309C0DAD030F021F45F3F19F0CCC0511115C1D9
S11309D0CFC0F0D098F39923C9F35523B1F3951BF5
S11309E0550BBB27AA2762177307840738F09F5F4C
S11309F05F4F220F331F441FAA1FA9F333D00E2EBB
S1130A003AF0E0E830D091505040E695001CCAF727
S1130A1029D0FE2F27D0660F771F881FBB1F2617EC
S1130A2037074807AB07B0E809F0BB0B802DBF01BF
S1130A30FF2793585F4F2AF09E3F510568F092C0FC
S1130A40DCC05F3FECF3983EDCF3869577956795C1
S1130A50B795F7959F5FC9F7880F911D9695879570
S1130A6097F90895E1E0660F771F881FBB1F62178F
S1130A7073078407BA0720F0621B730B840BBA0B4D
S1130A80EE1F88F7E095089504D06894B111B5C0BD
S1130A90089598D088F09F5790F0B92F9927B751AF
S1130AA0A0F0D1F0660F771F881F991F1AF0BA952E
S1130AB0C9F712C0B13081F09FD0B1E008959CC055
S1130AC0672F782F8827B85F39F0B93FCCF3869524
S1130AD077956795B395D9F73EF490958095709581
S1130AE061957F4F8F4F9F4F0895E89409C097FBFE
S1130AF03EF490958095709561957F4F8F4F9F4FF1
S1130B009923A9F0F92F96E9BB279395F695879534
S1130B1077956795B795F111F8CFFAF4BB0F11F4F7
S1130B2060FF1BC06F5F7F4F8F4F9F4F16C088239E
S1130B3011F096E911C0772321F09EE8872F762FD4
S1130B4005C0662371F096E8862F70E060E02AF015
S1130B509A95660F771F881FDAF7880F9695879501
S1130B6097F9089597F99F6780E870E060E0089529
S1130B709FEF80EC089500240A94161617061806B1
S1130B800906089500240A9412161306140605068D
S1130B900895092E0394000C11F4882352F0BB0F1E
S1130BA040F4BF2B11F460FF04C06F5F7F4F8F4F81
S1130BB09F4F089557FD9058440F551F59F05F3FBC
S1130BC071F04795880F97FB991F61F09F3F79F06B
S1130BD087950895121613061406551FF2CF4695ED
S1130BE0F1DF08C0161617061806991FF1CF86956F
S1130BF07105610508940895E894BB276627772753
S1130C00CB0197F908950BD0C4CFB5DF28F0BADF34
S1130C1018F0952309F0A6CFABCF1124EECFCADF8D
S1130C20A0F3959FD1F3950F50E0551F629FF001FB
S1130C30729FBB27F00DB11D639FAA27F00DB11D54
S1130C40AA1F649F6627B00DA11D661F829F2227DD
S1130C50B00DA11D621F739FB00DA11D621F839F64
S1130C60A00D611D221F749F3327A00D611D231F3A
S1130C70849F600D211D822F762F6A2F11249F5788
S1130C8050408AF0E1F088234AF0EE0FFF1FBB1FAB
S1130C90661F771F881F91505040A9F79E3F51054A
S1130CA070F060CFAACF5F3FECF3983EDCF38695FB
S1130CB077956795B795F795E7959F5FC1F7FE2BF5
S1130CC0880F911D9695879597F90895AA1BBB1BCC
S1130CD051E107C0AA1FBB1FA617B70710F0A61B38
S1130CE0B70B881F991F5A95A9F780959095BC0159
S10B0CF0CD010895F894FFCF33
S9030000FC
