:100000000C9434000C9451000C9451000C94510049
:100010000C9451000C9451000C9451000C9451001C
:100020000C9451000C9451000C9451000C9451000C
:100030000C9451000C9451000C9451000C945100FC
:100040000C9451000C9451000C9408020C94510033
:100050000C9451000C9451000C9451000C945100DC
:100060000C9451000C94510011241FBECFEFD8E026
:10007000DEBFCDBF11E0A0E0B1E0E0EBF4E002C0F4
:1000800005900D92A236B107D9F722E0A2E6B1E0C1
:1000900001C01D92A436B207E1F70E9453000C94F0
:1000A00056020C94000083E30E94B70080E091E0C8
:1000B0000E94E00041E060E087E290E00E9475006D
:1000C00041E061E087E290E00E94750041E063E07A
:1000D00087E290E00E9475000E94E3018FE19EE4B8
:1000E0000197F1F700C00000F7CF442389F04130B9
:1000F000F1F4FC01408121E030E0F90102C0EE0F93
:10010000FF1F6A95E2F7BF01642BFC01608308952D
:10011000FC01408121E030E0F90102C0EE0FFF1F39
:100120006A95E2F7BF0160956423FC01608308953E
:10013000FC01408121E030E0F90102C0EE0FFF1F19
:100140006A95E2F7BF01642BFC0160830895FC010E
:10015000408121E030E0F90102C0EE0FFF1F6A95F7
:10016000E2F7BF0160956423FC016083089510925B
:1001700064011092630110926201E0916201F0E06B
:10018000EB59FE4F1082519A5098E1ECF0E09081CB
:1001900098699083E2ECF0E090819260908390E027
:1001A0009093C5008093C4007894089510926401E0
:1001B0008093C600E0ECF0E0808185FFFDCF0895DC
:1001C000CF93DF93EC018881882331F021960E9440
:1001D000D60089918111FBCFDF91CF91089570E016
:1001E00016161706C4F4209165012223A1F0FC0124
:1001F00020E030E0D901AB59BE4F8C918193CF0103
:100200002F5F3F4F2617370731F0D901AB59BE4F4B
:100210004C914111EFCFFC011082089510926201C0
:10022000E0916201F0E0EB59FE4F10820895CF9308
:10023000DF93CDB7DEB72F970FB6F894DEBF0FBEB2
:10024000CDBFFC0120812D3379F0319630E0A1E063
:10025000B0E0AC0FBD1FA30FB11D2C933F5FCF01CA
:1002600021912D33A1F701C030E0FE01E30FF11D14
:100270001182FC0121812D3071F0329680E0ABE0DB
:10028000B0E0AC0FBD1FA80FB11D2C938F5F219163
:100290002D30A9F701C080E0FE01E80FF11D1386A3
:1002A00062E271E0CE0101960E944D02892B09F0B5
:1002B0007DC067E271E0CE010B960E944D02892B52
:1002C00081F460E088E290E00E94980061E088E2BA
:1002D00090E00E94A70063E088E290E00E94A700FF
:1002E00069C069E271E0CE010B960E944D02892B34
:1002F00081F460E088E290E00E94A70061E088E27B
:1003000090E00E94980063E088E290E00E94A700DD
:1003100051C06BE271E0CE010B960E944D02892B19
:1003200081F460E088E290E00E94A70061E088E24A
:1003300090E00E94A70063E088E290E00E949800AD
:1003400039C06DE271E0CE010B960E944D02892BFF
:1003500081F460E088E290E00E94980061E088E229
:1003600090E00E94980063E088E290E00E9498008C
:1003700021C061E371E0CE010B960E944D02892BF2
:1003800081F460E088E290E00E94A70061E088E2EA
:1003900090E00E94A70063E088E290E00E94A7003E
:1003A00009C083E391E00E94E00004C089E491E089
:1003B0000E94E0002F960FB6F894DEBF0FBECDBFAF
:1003C000DF91CF910895CF93DF93CDB7DEB7DA9564
:1003D0000FB6F894DEBF0FBECDBF809163018823B6
:1003E00071F01092630160916201CE0101960E944A
:1003F000EF00CE0101960E9417010E940E01D395D5
:100400000FB6F894DEBF0FBECDBFDF91CF91089538
:100410001F920F920FB60F9211242F933F934F9379
:100420005F936F937F938F939F93AF93BF93EF935C
:10043000FF938091C600909162019D3FD8F4E091B6
:100440006201F0E0EB59FE4F8083E0916201F0E041
:10045000EA59FE4F1082909162019F5F9093620172
:10046000882321F08A3011F08D3031F481E08093BF
:10047000630102C00E940E01FF91EF91BF91AF9105
:100480009F918F917F916F915F914F913F912F91AC
:100490000F900FBE0F901F901895FB01DC018D91FE
:1004A000019080190110D9F3990B0895F894FFCFAA
:1004B00048656C6C6F20576F726C642066726F6D4C
:1004C000204156522D6465762D626F617264210A57
:1004D0000D004154264400310032003300414C4CA1
:1004E0000030004E65697370726176616E207061D4
:1004F00072616D657461720A004B6F6D616E64614B
:10050000206E696A652070726F6E61646A656E61E3
:020510000A00DF
:00000001FF
