:100000000C9434000C9451000C9451000C94510049
:100010000C9451000C9451000C9451000C9451001C
:100020000C9451000C9451000C9451000C9451000C
:100030000C9451000C9451000C9451000C945100FC
:100040000C9451000C9451000C942D010C9451000F
:100050000C9451000C9451000C9451000C945100DC
:100060000C9451000C94510011241FBECFEFD8E026
:10007000DEBFCDBF11E0A0E0B1E0E2E5FAE002C0F2
:1000800005900D92AA32B107D9F712E0AAE2B1E0C9
:1000900001C01D92AC32B107E1F70E9453000C94ED
:1000A00027050C94000083E30E94630080E091E048
:1000B0000E948D000E9406018FE19EE40197F1F7F6
:1000C00000C00000F7CF10922C0110922B0110926B
:1000D0002A0190912A01EDE2F1E0E90FF11D108271
:1000E000519A5098E1ECF0E0908198699083E2ECAD
:1000F000F0E090819260908390E09093C5008093AF
:10010000C4007894089510922C018093C600E0EC0E
:10011000F0E0808185FFFDCF0895CF93DF93EC0160
:100120008881882331F021960E9483008991882359
:10013000D9F7DF91CF9108950F931F93CF93DF935A
:10014000CDB7DEB728970FB6F894DEBF0FBECDBF90
:10015000198290E0BE016B5F7F4F4AE050E00E9441
:10016000FD018E010F5F1F4FC801BE016B5F7F4F06
:100170000E94F201D8010D900020E9F71197E2E208
:10018000F1E083E001900D928150E1F7CE010196FC
:100190000E948D0028960FB6F894DEBF0FBECDBF2B
:1001A000DF91CF911F910F910895CF93DF93EC01D1
:1001B00070E016161706CCF480912D018823A9F063
:1001C000DE0180E090E02DE231E0F901E80FF91F57
:1001D00040814D93ED0101968617970731F0F901A3
:1001E000E80FF91F4081442381F71882DF91CF91F6
:1001F000089510922A0180912A01EDE2F1E0E80FC2
:10020000F11D108208950E948D000895CF93DF9311
:10021000CDB7DEB7C050D1400FB6F894DEBF0FBEE9
:10022000CDBF80912B01882371F010922B0160913A
:100230002A01CE0101960E94D500CE0101960E94AE
:1002400003010E94F900C050DF4F0FB6F894DEBFE3
:100250000FBECDBFDF91CF9108951F920F920FB6C1
:100260000F9211242F933F934F935F936F937F933C
:100270008F939F93AF93BF93EF93FF934091C600EB
:1002800080912A018D3F00F520912A018DE291E0B5
:10029000FC01E20FF11D408320912A0130E02F5F25
:1002A0003F4F820F931FFC01108280912A018F5FC4
:1002B00080932A01442321F04A3011F04D3031F46B
:1002C00081E080932B0102C00E94F900FF91EF9121
:1002D000BF91AF919F918F917F916F915F914F915E
:1002E0003F912F910F900FBE0F901F901895CF92B6
:1002F000DF92EF92FF920F931F93CF93DF938C01C6
:100300006A017B012DB73EB72A5030400FB6F894F2
:100310003EBF0FBE2DBFEDB7FEB73196ADB7BEB72E
:1003200012961C921E9211971382128285E291E01E
:100330009583848346835783608771870E941E025A
:10034000EC012DB73EB7265F3F4F0FB6F8943EBF86
:100350000FBE2DBF1816190614F00E94ED018DB7BF
:100360009EB70A970FB6F8949EBF0FBE8DBFEDB72C
:10037000FEB73196ADB7BEB712961C930E93119788
:10038000CE0101969383828385E291E095838483F5
:10039000C682D782E086F1860E941E02F801EC0F29
:1003A000FD1F2DB73EB7265F3F4F0FB6F8943EBFF7
:1003B0000FBE2DBF2081222311F00E94ED018C176A
:1003C0009D0711F00E94ED01DF91CF911F910F91D8
:1003D000FF90EF90DF90CF90089581E090E0F89447
:1003E0000C942705FB01DC010D900020E9F7119723
:1003F00001900D920020E1F70895FB019F01E89420
:100400004230C4F04532B4F44A3029F497FB1EF46C
:10041000909581959F4F642F77270E94DC04805D23
:100420008A330CF0895D8193CB010097A1F716F414
:100430005DE251931082C9010C944204AEE0B0E039
:10044000E4E2F2E00C94FE040D891E898F89988DF8
:1004500026E02C831A83098397FF02C080E090E88E
:1004600001979E838D83AE01455E5F4FCE0101965D
:10047000698D7A8D0E944E024D815E8157FD0AC0C2
:100480002F813885421753070CF49A01020F131F6E
:10049000F80110822E96E4E00C941A05ADE0B0E06D
:1004A000E4E5F2E00C94F0043C017D876C875A018E
:1004B000FC0117821682838181FFC8C12E01089436
:1004C000411C511CF3019381EC85FD8593FD8591C1
:1004D00093FF8191FD87EC87882309F4B3C18532AE
:1004E00041F493FD859193FF8191FD87EC878532DF
:1004F00029F490E0B3010E945204E4CFFF24EE24DB
:1005000010E01032B0F48B3269F08C3228F4803273
:1005100051F0833271F40BC08D3239F0803349F4DD
:1005200011602CC01260146029C0186027C01061CF
:1005300025C017FD2EC0282F20532A3098F416FF0F
:1005400008C08F2D880FF82EFF0CFF0CF80EF20E4E
:1005500015C08E2D880FE82EEE0CEE0CE80EE20E84
:1005600010620CC08E3221F416FD6CC1106406C0FE
:100570008C3611F4106802C0883659F4EC85FD857C
:1005800093FD859193FF8191FD87EC87882309F086
:10059000B8CF982F9554933018F09052933038F488
:1005A00024E030E0A20EB31E3FE339830FC0833650
:1005B00031F0833781F0833509F05AC022C0F5014C
:1005C0008081898322E030E0A20EB31E21E0C22E9A
:1005D000D12C420114C092E0292E312C2A0C3B1C54
:1005E000F5018080918016FF03C06F2D70E002C07E
:1005F0006FEF7FEFC4010E9437046C0151011F7738
:1006000015C082E0282E312C2A0C3B1CF50180807D
:10061000918016FF03C06F2D70E002C06FEF7FEF77
:10062000C4010E942C046C011068510113FD1CC010
:1006300006C080E290E0B3010E945204EA948E2D3D
:1006400090E0C816D906A8F30FC0F40117FD8591F4
:1006500017FF81914F0190E0B3010E945204E11015
:10066000EA940894C108D108C114D10471F7E7C015
:10067000843611F0893651F5F50117FF07C08081E6
:100680009181A281B38124E030E008C08081918112
:10069000AA2797FDA095BA2F22E030E0A20EB31E44
:1006A000012F0F76B7FF08C0B095A0959095819562
:1006B0009F4FAF4FBF4F0068BC01CD01A2012AE0A0
:1006C00030E00E947E04D82ED4183FC0853721F434
:1006D0001F7E2AE030E020C0197F8F36A9F08037D6
:1006E00020F4883509F0AEC00BC0803721F0883780
:1006F00009F0A8C001C0106114FF09C0146007C050
:1007000014FF08C0166006C028E030E005C020E1F4
:1007100030E002C020E132E0F50117FF07C0608140
:1007200071818281938144E050E006C060817181D3
:1007300080E090E042E050E0A40EB51EA2010E94CD
:100740007E04D82ED418012F0F7706FF09C00E7F24
:10075000DF1430F404FF06C002FD04C00F7E02C0A7
:100760001D2D01C01F2D802F90E004FF0CC0FE0145
:10077000ED0DF11D2081203311F4097E09C002FF27
:1007800006C01E5F05C086789070009709F01F5F55
:10079000802E992403FD12C000FF0DC0FD2C1E15F4
:1007A00050F4FE0CF11A1E2D06C080E290E0B30159
:1007B0000E9452041F5F1E15C0F304C01E1510F4E2
:1007C000E11A01C0EE2484FE0FC080E390E0B30183
:1007D0000E94520482FE1FC081FE03C088E590E0A3
:1007E00010C088E790E00DC0C40186789070009733
:1007F00091F081FC02C080E201C08BE207FD8DE236
:1008000090E0B3010E94520406C080E390E0B3017F
:100810000E945204FA94DF14C0F3DA94F201ED0D51
:10082000F11D808190E0B3010E945204DD20A9F700
:1008300006C080E290E0B3010E945204EA94EE20E8
:10084000C1F740CEF3018681978102C08FEF9FEF01
:100850002D96E2E10C940C05FC010590615070406E
:100860000110D8F7809590958E0F9F1F0895FC0179
:100870006150704001900110D8F7809590958E0FCF
:100880009F1F0895DC01FC01672F71917723E1F729
:10089000329704C07C916D9370836291AE17BF074D
:1008A000C8F308950F931F93CF93DF938C01EB014F
:1008B0008B8181FF1BC082FF0DC02E813F818C8107
:1008C0009D812817390764F4E881F9810193F98340
:1008D000E88306C0E885F985802F0995009731F4F3
:1008E0008E819F8101969F838E8302C00FEF1FEF41
:1008F000C801DF91CF911F910F910895FA01AA27A6
:10090000283051F1203181F1E8946F936E7F6E5F52
:100910007F4F8F4F9F4FAF4FB1E03ED0B4E03CD000
:10092000670F781F891F9A1FA11D680F791F8A1FE3
:10093000911DA11D6A0F711D811D911DA11D20D04A
:1009400009F468943F912AE0269F11243019305D04
:100950003193DEF6CF010895462F4770405D4193F5
:10096000B3E00FD0C9F7F6CF462F4F70405D4A3342
:1009700018F0495D31FD4052419302D0A9F7EACF0A
:10098000B4E0A6959795879577956795BA95C9F739
:1009900000976105710508959B01AC010A2E06942C
:1009A0005795479537952795BA95C9F7620F731FE5
:1009B000841F951FA01D0895AA1BBB1B51E107C0F2
:1009C000AA1FBB1FA617B70710F0A61BB70B881FDF
:1009D000991F5A95A9F780959095BC01CD0108956E
:1009E0002F923F924F925F926F927F928F929F923F
:1009F000AF92BF92CF92DF92EF92FF920F931F932D
:100A0000CF93DF93CDB7DEB7CA1BDB0B0FB6F894DD
:100A1000DEBF0FBECDBF09942A88398848885F841D
:100A20006E847D848C849B84AA84B984C884DF808E
:100A3000EE80FD800C811B81AA81B981CE0FD11D72
:100A40000FB6F894DEBF0FBECDBFED010895F89448
:020A5000FFCFD6
:100A520048656C6C6F20576F726C642066726F6DA4
:100A6200204156522D6465762D626F617264210AAF
:0A0A72000D000D0A00256C75000050
:00000001FF
