:100000000C9434000C9451000C9490000C9451000A
:100010000C9451000C9451000C9451000C9451001C
:100020000C9451000C9451000C9451000C9451000C
:100030000C9451000C94A4010C9451000C945100A8
:100040000C9451000C9451000C94A8020C94510093
:100050000C9451000C9453000C9451000C945100DA
:100060000C9451000C94510011241FBECFEFD8E026
:10007000DEBFCDBF11E0A0E0B1E0EEEDF5E002C0E3
:1000800005900D92A030B107D9F722E0A0E0B1E0D1
:1000900001C01D92A832B207E1F70E9470000C94D3
:1000A000ED020C9400001F920F920FB60F921124D4
:1000B0002F938F939F9381E080930201809178002A
:1000C0002091790090E0922B9093010180930001A0
:1000D0009F918F912F910F900FBE0F901F901895A9
:1000E0000E94320168EE73E082E00E947E010E946D
:1000F000640180EA9FE00E948D010E94710180ED01
:1001000097E00E948D010E94570180EA9FE00E94C3
:100110008D010E94710180ED97E00E948D01E7CF73
:100120001F920F920FB60F9211248F939F93AF934C
:10013000BF934A9B14C08091030190910401A09148
:100140000501B09106010197A109B109809303014E
:1001500090930401A0930501B093060115C04A993C
:1001600013C08091030190910401A0910501B09109
:1001700006010196A11DB11D809303019093040116
:10018000A0930501B0930601BF91AF919F918F910C
:100190000F900FBE0F901F901895442389F04130A7
:1001A000F1F4FC01408121E030E0F90102C0EE0FE2
:1001B000FF1F6A95E2F7BF01642BFC01608308957D
:1001C000FC01408121E030E0F90102C0EE0FFF1F89
:1001D0006A95E2F7BF0160956423FC01608308958E
:1001E000FC01408121E030E0F90102C0EE0FFF1F69
:1001F0006A95E2F7BF01642BFC0160830895FC015E
:10020000408121E030E0F90102C0EE0FFF1F6A9546
:10021000E2F7BF0160956423FC01608308954423E5
:1002200089F04130F1F4FC01408121E030E0F90136
:1002300002C0EE0FFF1F6A95E2F7BF01642BFC01BD
:1002400060830895FC01408121E030E0F90102C0A3
:10025000EE0FFF1F6A95E2F7BF0160956423FC0172
:100260006083089541E060E084E290E00E94CD0068
:1002700041E061E084E290E00E94CD0041E062E074
:1002800084E290E00E94CD0041E060E085E290E0F1
:100290000E940F0140E061E085E290E00E940F01C2
:1002A00040E062E085E290E00E940F01089540E0A6
:1002B00061E085E290E00E940F0141E062E085E2AA
:1002C00090E00E940F01089541E061E085E290E036
:1002D0000E940F0140E062E085E290E00E940F0181
:1002E000089540E061E085E290E00E940F0140E067
:1002F00062E085E290E00E940F01089593E0909300
:10030000800088618093810081E080936F0070930A
:1003100089006093880078940895A0E0B0E080930D
:10032000080190930901A0930A01B0930B018091F9
:10033000080190910901A0910A01B0910B01892B4C
:100340008A2B8B2BA1F708951F920F920FB60F9255
:1003500011242F933F934F935F936F937F938F93CA
:100360009F93AF93BF93EF93FF93809107018130E9
:1003700009F058C0E3E2F1E080819181A281B3816C
:100380000196A11DB11D80839183A283B383408117
:1003900051816281738180911B0190911C01A09118
:1003A0001D01B0911E01481759076A077B07E8F045
:1003B00080911F0190912001A0912101B091220113
:1003C000892B8A2B8B2B89F060911A01809118015F
:1003D000909119010E94F0001092230110922401C3
:1003E00010922501109226011DC0409123015091C9
:1003F0002401609125017091260180911F01909147
:100400002001A0912101B0912201481759076A07E4
:100410007B0740F060911A018091180190911901B9
:100420000E94FF008091140190911501A091160186
:10043000B0911701892B8A2B8B2B99F08091140195
:1004400090911501A0911601B09117010197A10992
:10045000B1098093140190931501A0931601B093F4
:1004600017018091100190911101A0911201B0919A
:100470001301892B8A2B8B2B99F08091100190917D
:100480001101A0911201B09113010197A109B109C5
:100490008093100190931101A0931201B093130166
:1004A00080910C0190910D01A0910E01B0910F016E
:1004B000892B8A2B8B2B99F080910C0190910D0147
:1004C000A0910E01B0910F010197A109B10980938C
:1004D0000C0190930D01A0930E01B0930F01809138
:1004E000080190910901A0910A01B0910B01892B9B
:1004F0008A2B8B2B99F08091080190910901A09192
:100500000A01B0910B010197A109B109809308017B
:1005100090930901A0930A01B0930B01FF91EF9111
:10052000BF91AF919F918F917F916F915F914F910B
:100530003F912F910F900FBE0F901F901895109222
:100540002701E0912701F0E0E75DFE4F108208955A
:100550001F920F920FB60F9211242F933F934F9338
:100560005F936F937F938F939F93AF93BF93EF931B
:10057000FF938091C600909127019D3FD8F4E091B0
:100580002701F0E0E75DFE4F8083E0912701F0E076
:10059000E65DFE4F1082909127019F5F90932701A7
:1005A000882321F08A3011F08D3031F481E080937E
:1005B000280102C00E949F02FF91EF91BF91AF916D
:1005C0009F918F917F916F915F914F913F912F916B
:0E05D0000F900FBE0F901F901895F894FFCF5C
:00000001FF
